:020000040800F2
:10000000C06800208102000865690008694F000887
:10001000EB670008310D0008358F00080000000074
:10002000000000000000000000000000C101000806
:100030004D1A0008000000001D020008318600086B
:100040009B0200089B0200089B0200089B0200081C
:100050009B0200089B0200089B0200089B0200080C
:100060009B0200089B0200089B0200089B020008FC
:100070006D1900089B020008791900089B0200080E
:100080009B020008851900089B020008410D00082A
:10009000350D00089B0200089B0200089B02000827
:1000A0009B020008398700089B0200089B02000899
:1000B0009B0200089B0200089B0200089B020008AC
:1000C0009B0200089B0200089B0200089B0200089C
:1000D0009B020008C18E00089B020008D98E000810
:1000E0009B0200089B0200089B0200089B0200087C
:1000F0009B0200089B0200089B0200089B0200086C
:100100009B0200089B0200089B0200089B0200085B
:100110009B0200089B020008458700089B0200081C
:10012000911900089B0200089D1900089B02000815
:100130009B0200089B0200089B020008590D000862
:100140004D0D00089B0200089B0200089B0200085E
:100150009B0200089B0200089B0200089B0200080B
:100160009B0200089B0200089B0200089B020008FB
:100170009B0200089B0200089B0200080000000090
:100180009B0200089B0200081D8A0008358A0008AF
:100190009B0200089B0200089B0200089B020008CB
:1001A00000000000000000009B020008DFF80CD0F7
:1001B00000F0E2FB004800479DAD0008C068002049
:1001C0002C4B19680868B0E8F04F80F30988BFF33A
:1001D0006F8F4FF0000080F311887047000000001F
:1001E00008480068006880F308884FF0000080F33A
:1001F000148862B661B6BFF34F8FBFF36F8F00DF15
:1002000000BF00BF08ED00E0DFF80C00016841F41A
:1002100070010160704700BF88ED00E0EFF30980D6
:10022000BFF36F8F134B1A681EF0100F08BF20ED3D
:10023000108A20E9F04F106009B44FF0500080F3AD
:100240001188BFF34F8FBFF36F8F0CF0A7FB4FF0F8
:10025000000080F3118809BC19680868B0E8F04F05
:100260001EF0100F08BFB0EC108A80F30988BFF3AE
:100270006F8F7047E0020020EFF3058070470000A9
:100280000648804706480047FEE7FEE7FEE7FEE730
:10029000FEE7FEE7FEE7FEE7FEE7FEE7E58600088D
:1002A000AD0100082DE9F05F0546002092469B460F
:1002B00088460646814640241BE02846414647467C
:1002C000224600F052FA53465A46C01A914110D3C2
:1002D00011461846224600F039FA2D1A67EB01083C
:1002E0004F4622460120002100F030FA17EB0009AA
:1002F0004E41201EA4F10104DFDC484631462A4667
:100300004346BDE8F09F40EA01039B0703D009E0A4
:1003100008C9121F08C0042AFAD203E011F8013BF1
:1003200000F8013B521EF9D27047D2B201E000F84A
:10033000012B491EFBD270470022F6E710B5134689
:100340000A4604461946FFF7F0FF204610BD2DE986
:10035000FE4F804681EA0300C00F0C46009021F05A
:10036000004123F00045B8EB0200A94105D2404608
:10037000214690461C460B46024623F0004010439F
:1003800047D0270DC7F30A00C3F30A510290401A61
:10039000019040286BDAC3F3130040F4801B0098EF
:1003A000924620B10023D2EB030A63EB0B0B0198BA
:1003B0005946C0F14002504600F0C8F906460D46C5
:1003C00050465946019A00F0E0F910EB08006141EF
:1003D000002487EA115284EAE7731A4340D0009A56
:1003E00062B3019A012A4FEA075215DC001B61EB48
:1003F00002014FF0004202EA0752CDE90042001C20
:1004000041F5801132462B4600F017FA03B0BDE8E3
:10041000F08F40462146F9E7001B61EB0201001C0A
:1004200041F5801300185B412018A2F5001747EB37
:10043000030140EAD570B6196D4111E06D084FEA2D
:10044000360645EAC0754FEA0752001B61EB020110
:10045000001C41F5801149084FEA30000019514154
:1004600032462B4603B0BDE8F04F00F0D7B90098F4
:10047000012240000023D0EB020263EBE0730098FE
:1004800021464FEAE074B8EB000061EB0401E9E7B4
:1004900083F000435BE781F0004158E72DE9FE4F10
:1004A00081EA030404F0004421F0004100944FF07D
:1004B000000B23F0004350EA01045ED052EA03042B
:1004C0005BD0C3F30A54C1F30A552C44A4F2F334AD
:1004D0000194A0FB0254C1F3130141F48011C3F352
:1004E000130343F4801301FB024400FB034E840A10
:1004F000970A44EA815447EA8357A4FB07680295A8
:100500008D0A05FB07854FEA932C04FB0C54270545
:10051000029D4FEA065847EA1637B5EB08056EEB21
:10052000070C870E920E47EA811742EA8312A7FB57
:100530000201B6EB0B0164EB00042B0D43EA0C3314
:100540005E1844EB1C50DA465146E7FB0201C5F346
:1005500013044FEA0B3343EA14534FEA0432019C6D
:1005600043EA0603A4F10C040294009CCDE900B414
:1005700000F063F903B0BDE8F08F00200146F9E711
:100580002DE9F04D81EA030404F0004B21F0004511
:1005900014464FF0000A23F0004150EA050220D033
:1005A00054EA01021DD0C5F30A570246C5F31303EE
:1005B000C1F31300C1F30A5640F4801543F48013CD
:1005C000A7EB0608101BD64608F2FD3873EB0500B2
:1005D00002D308F1010801E092185B41B8F1000F65
:1005E00003DA00200146BDE8F08D00204FF48011B1
:1005F000064684460EE0171B73EB050705D3121B56
:1006000063EB050306434CEA010C49084FEA30004E
:1006100092185B4150EA0107EDD152EA030012D073
:1006200082EA040083EA0501084305D0101BAB41B0
:1006300006D20122002306E000224FF0004302E030
:100640006FF0010253101AEB06004CEB085110EB4F
:100650000A0041EB0B01BDE8F04D00F0DFB80EB52C
:10066000C10F80EAE0700844CA07002140F233431A
:100670008DE80E000A460B4600F0DFF803B000BD1F
:1006800070B5C1F30A5201F000450024C1F3130113
:1006900040F2FF3341F480119A4201DA002070BD2C
:1006A00040F233439A42A2F2334203DC524200F05A
:1006B0005CF800E090402C43F1D0404270BD00F067
:1006C000004230F000400AD0C10D01F56071C0F366
:1006D000160042EA0151C20840071143704700204A
:1006E0000146704730B5041E71F1000404DB4FF081
:1006F0000044404264EB0101141E73F1000405DB69
:100700001C464FF00043524263EB0403994208BF7A
:10071000904230BD01F0004330B421F0004150EA76
:10072000010206D00A0DA2F56072C1F31301002A7E
:1007300002DC30BC00207047440F44EAC104C10011
:10074000E01830BC00EBC25000F031B8202A04DBC6
:10075000203A00FA02F1002070479140C2F12003D4
:1007600020FA03F3194390407047202A04DB203A13
:1007700021FA02F00021704721FA02F3D040C2F1C1
:1007800020029140084319467047202A06DBCB1708
:10079000203A41FA02F043EAE07306E041FA02F33C
:1007A000D040C2F120029140084319467047002909
:1007B000A8BF7047401C490008BF20F001007047E7
:1007C00010B4B0FA80FC00FA0CF050EA010404BF47
:1007D00010BC704749B1CCF1200421FA04F411FA9D
:1007E0000CF118BF012121430843A3EB0C01CB1DE1
:1007F0004FEA00614FEA102042BF002010BC704752
:1008000000EBC35010440029A4BF10BC7047401C2B
:10081000490008BF20F0010010BC704710B5141E3D
:1008200073F1000408DA401C41F1000192185B41A9
:100830001A4301D120F0010010BD2DE9F04D924680
:100840009B4611B1B1FA81F202E0B0FA80F2203297
:100850009046FFF77BFF04460F4640EA0A0041EA54
:100860000B0153465A46084313D0114653EA010080
:1008700019D0C8F140025046FFF777FF05460E46F3
:10088000504659464246FFF761FF084305D0012014
:1008900004E020463946BDE8F08D0020054346EAD5
:1008A000E0762C4337430A986305E40AA0EB08007E
:1008B0000022FD0A44EA47540A3002D500200146CE
:1008C000E9E7010510196941DDE9084500196941A9
:1008D000BDE8F04DA2E72DE9F04D00231A461B1AA2
:1008E0008A4103DB00200146BDE8F08DC1F30A52C6
:1008F000C1F3130141F480154FF0000BD10702D171
:1009000000186D41521E0027044640F2FF11384680
:1009100001EB620A3E468046024600204FF48011F9
:10092000FFF723FFC2197141BB1846EB0100B4EB7E
:10093000030C75EB000C04D3E41A65EB00051746B5
:100940000E46241908F101006D4180463428E3DD8C
:10095000F91946EB0600091BA84103D24FF0FF32FC
:10096000134601E0002213461BEB070046EB0A5139
:10097000BDE8F04DFFF752BF064C074D06E0E068BA
:1009800040F0010394E8070098471034AC42F6D3D6
:10099000FFF710FCE0E4000800E500080EB540F2A7
:1009A000334102910021CDE900110A460B46FFF7C1
:1009B00044FF03B000BD70B58C1810F8015B15F052
:1009C000070301D110F8013B2A1106D110F8012BC1
:1009D00003E010F8016B01F8016B5B1EF9D12B07E6
:1009E00005D40023521E0DD401F8013BFAE710F89C
:1009F000013BCB1A921C03E013F8015B01F8015B89
:100A0000521EF9D5A142D8D3002070BD10B50146C1
:100A1000806B026C12F0500F05D0026CD20626D506
:100A200001F071FF10BD016C41F4007101640168B7
:100A30008A6812F0405F17D1027EAAB9CA6A12F41E
:100A4000700F02D08A6852050ED44A6822F0200244
:100A50004A60016C21F480710164016CC90403D403
:100A6000016C41F00101016401F036FF10BD806BA3
:100A7000C26CBDE810400846104710B5806B40219D
:100A80000164416C41F00401416401F03CFF10BD80
:100A900010B5806B01F036FF10BD0000464910B55F
:100AA0004A6822F440324A604A6843681A434A60FE
:100AB00001684A6822F480724A6001684A680369E2
:100AC00042EA03224A6001684A6822F040724A60A2
:100AD00001684A6883681A434A6001688A6822F498
:100AE00000628A6001688A68C3681A438A60816A02
:100AF0006FF07062D14201688A6822F070628A6089
:100B000001688A680CD0836A1A438A6001688A681F
:100B100022F040528A6001688A68C36A1A4301E081
:100B200022F040528A6001688A6822F002028A60DC
:100B300001688A68037E42EA43028A6090F82010C6
:100B4000002901684A680FD042F400624A600168D7
:100B50004A6822F460424A6001684A68174C436A56
:100B600004EB43331A4301E022F400624A60016857
:100B7000CA6A22F47002CA620168CA6A838B104C86
:100B800004EB03531A43CA6201688A6822F40072B4
:100B90008A6001688A6890F8303042EA43228A60AD
:100BA00001688A6822F480628A6001688A68406904
:100BB00042EA8020886010BD0023014000E0FFFF72
:100BC0000000F0FFDFED3B0A10B520EE200ADFED5C
:100BD0003A0A04462DED068B80EE208A84B090ED13
:100BE000020A8DED020A18EE100AFFF768FD41ECCB
:100BF000100B08F0E9FEB0EE409AF0EE609A6068E3
:100C0000FFF75DFD53EC192BFFF748FC41EC190B86
:100C100018EE100AFFF753FD41EC100B08F064FECC
:100C2000B0EE40AAF0EE60AA2068FFF748FD53EC52
:100C30001A2BFFF733FC53EC192BFFF729FCFFF7B6
:100C400069FD009018EE100AFFF739FD41EC100B1A
:100C500008F04AFEB0EE409AF0EE609A6068FFF746
:100C60002EFD53EC192BFFF719FC41EC190B18EE74
:100C7000100AFFF724FD41EC100B08F0A5FEB0EEC2
:100C8000408AF0EE608A2068FFF719FD53EC182BBC
:100C9000FFF704FC53EC192BFFF759FBFFF73AFD64
:100CA0000190064968460AF0C7F804B0BDEC068B0F
:100CB00010BD0000DB0F494000003443AC000020B1
:100CC000BEEE001AD0ED000A20EE011AF4EEC10AC1
:100CD000F1EE10FA02D230EE800A0AE0B6EE001A07
:100CE00020EE011AF4EEC10AF1EE10FA03DD30EE47
:100CF000C00A80ED000A7047BEEE001AD0ED000A6F
:100D000020EE011AF4EEC10AF1EE10FA02D230EE32
:100D1000800A0AE0B6EE001A20EE011AF4EEC10ACB
:100D2000F1EE10FA03DD30EEC00A80ED000A7047E4
:100D3000FEE70000014802F07CB8000040040020FB
:100D4000014802F076B8000040040020014802F09B
:100D500070B8000068040020014802F06AB8000082
:100D60006804002070B500EE100A2DED088BB8EE77
:100D7000C00A5F4C84ED120A00EE101AB8EEC00AE9
:100D800084ED170A00F0F8FEBDEEC00A10EE100A5E
:100D900005B200EE105AB8EEC00ADFED560A20EE9A
:100DA000200ADFED550A20EE208AD4ED140A94EDD6
:100DB000130A18EE100A70EE808A94ED150AD4ED2D
:100DC000160A30EE209AFFF77AFC41EC100B08F07F
:100DD000FBFDB0EE40AAF0EE60AA19EE100AFFF794
:100DE0006EFC53EC1A2BFFF759FB41EC1A0B18EE73
:100DF000100AFFF764FC41EC100B08F075FDB0EE33
:100E000040BAF0EE60BA18EE900AFFF758FC53ECC7
:100E10001B2BFFF743FB53EC1A2BFFF739FBFFF7B4
:100E200079FC364E306018EE100AFFF748FC41ECB2
:100E3000100B08F059FDB0EE40AAF0EE60AA19EED2
:100E4000100AFFF73CFC53EC1A2BFFF727FB41EC91
:100E5000190B18EE100AFFF732FC41EC100B08F0EA
:100E6000B3FDB0EE40AAF0EE60AA18EE900AFFF7CC
:100E700026FC53EC1A2BFFF711FB53EC192BFFF751
:100E800066FAFFF747FC706062890021012022B1F9
:100E9000012A08D0022A19D10FE04FF67C42A28124
:100EA0002172608112E04FF47C42A281217215F51B
:100EB0002F7F0BDA0221618107E04FF48062A2816B
:100EC0002172B5F52F7F01DD60812072B4F90C002D
:100ED000D4ED0F0A281A00EE100A0848B8EEC00A2E
:100EE000603806F03FFD86ED020ABDEC088B70BD50
:100EF0004C00002000000039560EC9C0D010002060
:100F00002DE9F04100EE100A554CB8EEC00A2DED67
:100F1000028BB7EE008A84ED110AE1810CF02EF904
:100F2000E062216B4F4E88427ED34F4D0A302063E2
:100F3000688A4FF00001C20700D06182820700D5A5
:100F40002182020700D5E182420700D5A182E18912
:100F50004FF4FA770AB2424900F001003B461031E3
:100F600000F0A2FAD4ED110A3B4620EE200ABDEEB5
:100F7000C00A10EE100A00B200EE100AB8EEC00A65
:100F800084ED130AE189A87C0AB23549C0F3400018
:100F9000123100F089FAD4ED110A3B46F1EE600AF5
:100FA00020EE200ABDEEC00A10EE100A00B200EEDC
:100FB000100AB8EEC00A84ED140AE189A87C0AB2CE
:100FC0002749C0F38000163100F06EFAD4ED110A03
:100FD0003B46F1EE600A20EE200ABDEEC00A10EE9C
:100FE000100A00B200EE100AB8EEC00A84ED150A2D
:100FF000E189A87C0AB21A49C0F3C000143100F09C
:1010000053FAD4ED110A20EE200ABDEEC00A10EE0C
:10101000100A00B200EE100AB8EEC00A84ED160AFB
:101020002078032813D000E011E0D4ED140A94EDE9
:10103000131A70EE810A60EE880AC6ED000AD4ED3C
:10104000150A30EE800A20EE080A86ED010A9FEDAF
:10105000070A86ED020ABDEC028BBDE8F0810000B4
:101060004C000020D010002096180020A69BC43B06
:101070000348007808B10020704701207047000045
:101080005500002070B52DED088B00F075FDBDEE0C
:10109000C00A10EE100A04B200EE104AB8EEC00A00
:1010A000DFED440A20EE200ADFED430A434D20EE37
:1010B000208AD5ED140A95ED130A18EE100A70EE89
:1010C000808A95ED150AD5ED160A30EE209AFFF7C5
:1010D000F6FA41EC100B08F077FCB0EE40AAF0EE07
:1010E00060AA19EE100AFFF7EAFA53EC1A2BFFF781
:1010F000D5F941EC1A0B18EE100AFFF7E0FA41ECB3
:10110000100B08F0F1FBB0EE40BAF0EE60BA18EE4A
:10111000900AFFF7D4FA53EC1B2BFFF7BFF953ECFF
:101120001A2BFFF7B5F9FFF7F5FA254E306018EEE8
:10113000100AFFF7C4FA41EC100B08F0D5FBB0EE33
:1011400040AAF0EE60AA19EE100AFFF7B8FA53ECC5
:101150001A2BFFF7A3F941EC190B18EE100AFFF751
:10116000AEFA41EC100B08F02FFCB0EE40AAF0EE06
:1011700060AA18EE900AFFF7A2FA53EC1A2BFFF7B9
:101180008DF953EC192BFFF7E2F8FFF7C3FA04F5DA
:10119000806400EE104A7060D5ED0F0AB8EEC00A08
:1011A000A6F1600006F0DEFB86ED020ABDEC088BBE
:1011B00070BD000000000039560EC9C04C00002070
:1011C000D010002007489FED060A80ED0E0A064861
:1011D00080ED000A80ED010A80ED020A70470000F0
:1011E000000000004C000020D01000200B4810B57B
:1011F000418A0B48CA0701D0890602D40221017036
:1012000010BD01214172032140F6B83000F09CF975
:10121000BDE8104042F2283000F0A4BA9618002031
:101220004C0000202DE9F0413A4C00250126607861
:10123000012801D16672657000F011FF00B165727E
:1012400022783549022742F22830092A2ED2DFE8D7
:1012500002F02D4B0509232D2F2D3300BDE8F04161
:1012600000F0C2BA498A890501D4A67007E0A178C6
:1012700029B1A570E178491C01F00101E170E17824
:1012800049B166720A21804600F05EF9322140467B
:10129000FFF768FD00E0277000F0E1FE20B1657205
:1012A000BDE8F041FFF78EBF27706672BDE8F081A0
:1012B000BDE8F041FFF79ABF498AC90401D42671FD
:1012C00007E0217929B125716179491C01F00101FB
:1012D0006171617931B10A2100F036F9BDE8F04160
:1012E000FFF7D0BE2770E1E7498A490501D4A6710E
:1012F00007E0A17929B1A571E179491C01F001014B
:10130000E171E1790029EDD0BDE8F0410A21FFF754
:10131000F7BD00004C00002096180020401EC0B20F
:10132000C0EB001110B5124800EB8104A089218F99
:10133000401A00B2B0F5805F02DDA0F5005004E075
:1013400010F5805F01DA00F50050A086A0892087A3
:10135000B4F9340000EE100A0648B8EEC00A04F0F2
:10136000CDF9BDEEC00A10EE100AA08610BD000037
:101370005C1300209C1100203C484FF400512DEDDF
:10138000048B82B0C16400219FED390A016580EDB4
:10139000000A9FED380ADFED390A80ED150A9FED4E
:1013A000360A384A80ED160A9FED350A06F0D0FB62
:1013B0009FED378ADFED348A9FED349A314BF0EEA2
:1013C000681A303BB0EE491AF0EE480AB0EE480A0F
:1013D000A3F10C0201212F4805F024FA294BF0EE6D
:1013E000681A243BB0EE491AF0EE480AB0EE480AFB
:1013F000A3F118020221284805F014FA214BF0EE5F
:10140000681A183BB0EE491AF0EE480AB0EE480AE6
:10141000A3F124020321214805F004FA194BF0EE50
:10142000681A0C3BB0EE491AF0EE480AB0EE480AD2
:10143000A3F1300204211A4805F0F4F9194C00BF59
:101440000BF09CFE009000F0CDFF04F053FA2078E2
:1014500020B1012804D106F0A1FC01E004F07CF9E0
:10146000022168460BF02AF9EAE70000701000201C
:101470000000C842CAF24971CDCC4C3EA69B443B09
:101480008FC2753C80D6000800401C4600409C4638
:10149000000000003C1A0020041B0020CC1B002090
:1014A000941C002009000020F0B507462DED048BA8
:1014B00081B01D469FED218A16468DED008A0C46AF
:1014C000B1F90000FFF7CBF89FED1D9B53EC192BF2
:1014D000FEF7E4FF41EC100B08F0DAFA53EC192B9D
:1014E00051EC100BFEF7DAFFFFF714F900EE100ACB
:1014F000012F8DED000A19D0B5EEC00AF1EE10FAF9
:1015000007DD2088401B00B22080002801DA00207F
:101510002080F7EE000AB0EE480A684604F006FAAA
:101520009DED000A01B0BDEC048BF0BD10EE100A79
:10153000B0F17E5FEDDA20883044E9E7000000007A
:10154000333333333333C33FF0B500EE100A2DEDA0
:101550000A8B81B0B8EEC00AF7EE008A7A4CCDED66
:10156000008A84ED110AE1810BF008FE774E60627B
:10157000774996ED020AB0EEC08A18EE100A88424A
:1015800044DDD4ED128A28EEA80A10EE100AFFF707
:1015900096F841EC190B18EE100AFFF790F841ECA1
:1015A0001A0B18EE900AFFF78AF853EC1A2BFEF785
:1015B0006FFF9FED68BB53EC1B2BFEF7C8FE41ECA1
:1015C0001A0B18EE100AFFF77AF841EC1C0B18EE14
:1015D000900AFFF774F853EC1C2BFEF759FF53ECFD
:1015E0001B2BFEF7B4FE53EC1A2BFEF757FF53EC00
:1015F000192BFEF7C5FFFFF78DF8F7EE000A9FEDF8
:10160000570A0090684604F091F901E0CDED008A98
:10161000D4E9090188427DD3514D0A30A062688A1D
:101620004FF00001C20700D06182820700D52182FD
:10163000020700D5E182420700D5A182E1894FF47B
:10164000FA770AB2404900F001003B461031FFF73B
:101650002BFFD4ED110A3B4620EE200ABDEEC00A56
:1016600010EE100A00B200EE100AB8EEC00A84EDC7
:10167000130AE189A87C0AB23349C0F34000123151
:10168000FFF712FFD4ED110A3B46F1EE600A20EE9F
:10169000200ABDEEC00A10EE100A00B200EE100AD9
:1016A000B8EEC00A84ED140AE189A87C0AB2264982
:1016B000C0F380001631FFF7F7FED4ED110A3B4668
:1016C000F1EE600A20EE200ABDEEC00A10EE100A0C
:1016D00000B200EE100AB8EEC00A84ED150AE189E6
:1016E000A87C0AB21849C0F3C0001431FFF7DCFE31
:1016F000D4ED110A20EE200ABDEEC00A10EE100A49
:1017000000B200EE100AB8EEC00A84ED160A207886
:10171000032800E014E013D0D4ED140A94ED131A5A
:1017200030EE811ADDED000A21EE201A86ED001A56
:1017300094ED151A31EE000A20EE200A86ED010A1A
:1017400001B0BDEC0A8BF0BD4C000020D010002091
:101750000000484400000000000089400000000034
:101760009618002038B51A49DFED1A0A1A4C91ED87
:10177000020A1A4D30EE600A8DED000A00EE100AE2
:10178000B8EEC01A84ED121A607A012811D01448FC
:10179000D4ED100AB0F90A0000EE100AB8EEC00A43
:1017A00020EE200AF1EE410A09F014F885ED020A54
:1017B00038BD9FED0C0A6846FFF782FA0748D4ED62
:1017C0000F0A9DED000A603806F0CCF8EEE7000045
:1017D000AC18002000C028454C000020D01000208C
:1017E00096180020000000462DE9F041234D244CBE
:1017F0004FF00106688A810500D4A670C10400D4A8
:10180000267181054FF000070ED580060CD400F03C
:1018100026FC48B9A07838B1A770E078401C00F0E9
:101820000100E070032005E0688AC10705D080064A
:1018300003D506202070BDE8F08100F010FC08B14F
:101840000420F7E7688AC1040ED5800612D400F0A0
:1018500006FC48B9207938B127716079401C00F046
:10186000010060710820E5E7A87C800602D400F042
:10187000F6FB08B16772DEE76672DCE796180020B7
:101880004C00002070B52DED028B03F04DFE054697
:1018900003F044FE00EE100A2E4CB8EE408A94EDA0
:1018A000230A08F067FD2C48F0EE408A90ED230AE9
:1018B00008F060FD294878EE808A90ED230A08F050
:1018C00059FD274878EE808A90ED230A08F052FDF2
:1018D00038EE800A23498DB100200862D1ED070A55
:1018E000B4EEE08AF1EE10FA13D288EE201A61EE1F
:1018F000010A91ED061A60EE810A0CE0086A401CAC
:101900000862642802DCD1ED0D0A06E0DFED160A5C
:1019100001E0D1ED060AC1ED0D0AB4EEE00AF1EEE8
:1019200010FA13DDD4ED231A81EE801A21EE201A6D
:10193000C1EE001A21EEA01AC1EE001A21EEA01A83
:10194000C1EE001A21EEA00A84ED230ABDEC028B41
:1019500070BD00003C1A0020041B0020CC1B00209E
:10196000941C00204C00002000401C46014801F05F
:1019700049BD000010100020014801F043BD0000E7
:10198000F00E0020014801F03DBD0000500F002086
:10199000014801F037BD0000E0030020014801F0DC
:1019A00031BD0000B00F002001681823CAB2103A00
:1019B000B2FBF3F2054B6FF30901032A9B5CC3658D
:1019C00000D9091D816508467047000060E20008E3
:1019D00010B5014600208B698A6A4FF0C07453B17C
:1019E000B3F5005F15D072B1012A0CD0022A0AD0DB
:1019F000032A09D104E01AB1012A06D0022A03D130
:101A0000C96AC90100D5012010BDC96AA142FAD036
:101A100010BD002AF7D0012AF2D0022AF3D0032AFF
:101A2000F3D010BD30B50468256825F48025256005
:101A3000046863608368402B036803D09960006882
:101A4000C26030BD9A600068C16030BD70477047A9
:101A50004648474A4068B0F90C00A0F5B0518E39AD
:101A600000EE101AA1F50061F8EEC01A00EE101A8F
:101A7000A0F28E61A0F68E60B8EEC01A00EE101AC9
:101A80004FF08B41F8EEC00A00EE100A11EE900AFA
:101A9000B8EEC00A9FED372A884202DD71EEC21A05
:101AA00005E011EE900A904201D971EE821A11EE12
:101AB000100A884202DD31EE421A05E011EE100AEA
:101AC000904201D931EE021A10EE900A884202DDEE
:101AD00070EEC20A05E010EE900A904201D970EE55
:101AE000820A10EE100A884202DD30EE420A05E05A
:101AF00010EE100A904201D930EE020ABDEEE12A42
:101B000012EE100ABDEEC12A002812EE101A00DAF9
:101B10004042002900DA4942884201DAB0EE611AF7
:101B2000FDEEE01A11EE901AFDEEC01A002911EE3A
:101B3000900A00DA4942002800DA4042814201DA84
:101B4000B0EE600AFDEEC10A10EE901AFDEEC00A7A
:101B5000002910EE900A00DA4942002800DA4042DB
:101B6000814201DAB0EE410A704700005C1D00209E
:101B7000000080C50000004620484FF08B429FEDDA
:101B8000211A4068B0F90C00A0F68C2100EE101A62
:101B9000A0F28E201A49F8EEC00A00EE100A10EEEC
:101BA000900AB8EEC00A904202DD70EEC10A05E06C
:101BB00010EE900A884201D970EE810A10EE100AE8
:101BC000904202DD30EE410A05E010EE100A884234
:101BD00001D930EE010ABDEEE01A11EE101ABDEE89
:101BE000C01A002911EE100A00DA4942002800DA72
:101BF0004042814201DAB0EE600A70475C1D00206D
:101C0000000080C5000000462DE9F0472DED028B55
:101C10009FED9A8A9A4C4FF0000804F5847084F87E
:101C2000048084F8058007F0D9F904F5887007F07E
:101C3000D3F904F1E00007F0FBF904F180059148C5
:101C400095ED180A03F05AFD85ED180A07F006FA1B
:101C5000DFF8309204F5847A09F1400904F58077C1
:101C6000D0B199ED010ADAED000A94ED0B1A04F5F2
:101C7000887000EE810A84ED1D0A99ED020AD0ED0C
:101C8000000A94ED0C1A00EE810A84ED1E0A07F09A
:101C90009DF90BF073FA3860D7E9001081420AD041
:101CA000081A686394ED1D0A84ED1B0A94ED1E0A60
:101CB00084ED1C0A7960744E707D012831D00BF0E0
:101CC0005DFA01466F484F4699ED010A503006F023
:101CD00073FE85ED1D0A0BF051FA0146694897ED38
:101CE000020A6C3006F068FE664885ED1E0A97ED24
:101CF000010AF0EE480A883008F0AAFFE866614859
:101D000097ED020AF0EE480AF43008F0A1FF2867C8
:101D100085ED0E8A5D4895ED130A0178032924D0DC
:101D200027E0584894ED1B0A503006F045FE85ED3B
:101D30001D0A5448396894ED1C0A6C3006F03CFECC
:101D400085ED1E0A4F48D5ED1D0A94ED1B0A88301B
:101D500008F07EFFE8664B48D5ED1E0A94ED1C0A9C
:101D6000F43008F075FF2867D4E7F0EE080A20EE9B
:101D7000200A707D01280BD0A4F80A80A4F80C80FA
:101D8000A4F80E80A4F81080BDEC028BBDE8F087AB
:101D90006089401C80B26081F27D012A0DD1032947
:101DA0000BD000BFD5ED0F0AC4ED0D0AD5ED170A13
:101DB000C4ED0E0AD5ED140A1FE00029F2D0D5EDCE
:101DC000100A3349C4ED0D0A95ED171A84ED0E1A69
:101DD000D5ED150AC4ED110A498A49050FD5D5ED8F
:101DE000111AC4ED0D1ADFED2B1A21EE211A84ED24
:101DF0000E1A9FED291A60EE810AC4ED110AE96EF0
:101E00009FED261AD1ED010A60EE811AFDEEE11A6E
:101E1000C4ED0F1AD1ED001A21EE811ABDEEC11AE0
:101E200084ED101A9AED001AD5ED121AB0EEC11A0F
:101E3000B4EEE11AF1EE10FA18D201EE100AB8EE83
:101E4000411AB4EEC01AF1EE10FA0FDDB0EEE00A5E
:101E5000D4ED110AB4EEE00AF1EE10FA06DBD5ED8E
:101E6000160AB4EEE00AF1EE10FA8DD3054894EDAF
:101E70001E0A303080ED020A86E7000000000000F4
:101E8000B4000020FC110020942400204C0000200D
:101E900096180020CDCC8C3FCDCCCC3E00007A44AF
:101EA0002DE9F0412DED028B9FED668A664807F023
:101EB00075F8654EDFF89481E43E654DB0790027F2
:101EC00040B198F81500082804D196ED120A85ED66
:101ED000020AB77107F0C2F85B4C643CA0B194ED04
:101EE000190AD4ED1A0A5A48103030EE200AD0ED03
:101EF000010A30EE800A84ED010A07F067F80BF062
:101F00003DF904F18001086098F81510514808293E
:101F10002FD0F179F1B3012954D1B0F90A1094ED21
:101F2000051A00EE101AF8EEC00A94ED080A00EE49
:101F3000810A84ED080AB0F90C0094ED041A00EE51
:101F4000100AF8EEC00A94ED090A00EE810A84ED49
:101F5000090AD9B3F767D0B3C4F800703A4895EDD1
:101F6000010AD4ED070A443805F0F0FE85ED010AB8
:101F70001DE094ED010A85ED010AF179B0EE080A41
:101F800031B301291ED194ED041AB0F90C00C1EE51
:101F9000000A00E033E000EE100AB8EEC01A94ED3B
:101FA000090A01EE200A84ED090A00B327602648D9
:101FB00095ED020AD4ED060A403805F0C7FE00BFD1
:101FC00085ED020ABDEC028BBDE8F0812AE031E02C
:101FD000D4ED020AB0F90C0080EE801A00EE900AEF
:101FE00095ED020AF8EEE00A00EE810AE8E72068C3
:101FF000401C20601928DAD984ED098AD7E7B0F9A6
:102000000C0095ED020A00EE900A94ED021AF8EE2B
:10201000E00A00EE810A85ED020A9FED0F0A85EDC8
:10202000000ACFE7F16F491CF167192993D984EDB4
:10203000088A90E72068401C206019288ED984ED1A
:10204000098A8BE7000000009801002094240020FA
:102050002C1200209618002000C0284570477047B9
:102060002DE9F0413F48404C414E077A0023DFED17
:102070003F0A728A012194ED010A00F180050A2FBE
:1020800013D2DFE807F0050952191240121D2E6421
:10209000BDE8F04100F08EB8C171D5ED0B0AF5EE48
:1020A000C00AF1EE10FA02D10372BDE8F0812D48AA
:1020B000D5ED0A0AAC300FE0BDE8F04100F05CB8A5
:1020C000C171D5ED0C0AF5EEC00AF1EE10FAEBD0B5
:1020D0002448D5ED0A0AB03005F038FE84ED010A37
:1020E000E3E7C171717C012909D0224903724B7564
:1020F0004381037143718381C3810382D5E7BDE8C6
:10210000F041FFF781BD940707D1540705D41407A8
:1021100003D4540601D4120612E00372C171C0ED5B
:10212000080AC0ED090AC170BFE79407F5D154074A
:10213000F3D41407F1D45406EFD41406EDD45204AA
:10214000002AEADBC171BDE8F041FFF787BFC1712A
:10215000920402D403728171A7E7BDE8F041FFF752
:102160009FBE0000B40000202C12002000007A4422
:10217000961800209424002070B50A4D0024EC71BC
:1021800004F011F810B904F00DF848B107489FEDBC
:10219000060A80ED000A9FED060A80ED020A70BD76
:1021A0002C7270BDB400002000C028452C12002005
:1021B00000E0D3452DE9F0410AF0E0FF764CE06401
:1021C000FEF756FF01274FF0000810B903F0EAFFB1
:1021D00010B184F8078000E0E771704EC4F82880E1
:1021E0006D4D708A05F18005810634D4410412D505
:1021F000D4E9131291420ED9277201F5FA712165C3
:10220000410702D59FED660A01E09FED660A85ED64
:102210000B0ABDE8F081410603D5626DE16C914285
:1022200005D8010617D5A26DE16C914213D907219B
:102230002172410605D5E06CFA309FED5B0A6065BE
:1022400006E00006E5D5E06CFA309FED580AA0657F
:1022500085ED0C0ADDE703F0A6FF10B903F0A2FF3D
:1022600008B1032006E0717C012905D1307A0328EA
:1022700002D008202072CCE7708A42040AD5820678
:1022800008D5236EE26C9A4204D902F5C872052083
:102290002266EFE782050AD5820608D5E36DE26C77
:1022A0009A4204D902F5C8720220E265E2E780048E
:1022B00006D5012904D0307A032801D00920D9E7B6
:1022C000E0793B4FD8B30128A3D1B6F90A0095EDC8
:1022D000051A00EE100AF8EEC00A95ED080A00EEA5
:1022E000810A85ED080AB6F90C1095ED041A00EE86
:1022F000101AF8EEC00A95ED090A00EE810A85ED84
:10230000090A9FED2C0AA0B3C4F8648091B3C4F805
:10231000688000BF204897ED010AD5ED070AA0307C
:1023200005F014FD87ED010A1B4897ED020AD5ED73
:10233000060AA43005F00AFD87ED020A69E7FFE707
:10234000B6F90C0097ED020A00EE900A95ED021A1C
:102350001748F8EEE00A103000EE810A87ED020A15
:102360009FED150A87ED000A90ED010A87ED010A3D
:102370004FE700E007E0606E401C60661928C5D991
:1023800085ED080AC2E7A06E401CA0661928C1D9D5
:1023900085ED090ABEE70000B40000209618002071
:1023A00000B05F4500B05FC500A0DF4400A0DFC4FF
:1023B0002C1200200000000000C02845074810B57E
:1023C0000068FEF7ABFF0548C8300068FEF7A6FFBF
:1023D00003480068BDE81040FEF7A0BF5C1D002068
:1023E000EC1E00200948007801280ED10848017A27
:1023F0000848012905D0032905D0022905D101216A
:1024000002E0022100E00021017070470900002075
:10241000961800204C00002010B558B1084C491EF9
:102420000BD310F8013B5340DBB234F8133083EA8E
:102430001222F4E74FF6FF7010BD104610BD0000E9
:10244000ECD7000810B5054C04E000BF10F8013BC4
:102450005340E25C491EF9D2104610BDECD600088C
:1024600050484FF4B4712DED048B82B0C16400214B
:102470009FED4D0A016580ED000AF1EE040AC0ED02
:10248000150A4A4E80ED090A603086ED230A80ED78
:10249000000A9FED478AF0EE480ADFED468A464A79
:1024A0006038B0EE680A05F053FB434A3D48F0EE51
:1024B000480AB0EE680A24320021603005F048FB7B
:1024C0009FED3E9ADFED3E9A3B4BF0EE491A0C3BF6
:1024D000B0EE691AF0EE480AB0EE680A03F118028D
:1024E0000521304604F09EF9334BF0EE491A1833BB
:1024F000B0EE691AF0EE480AB0EE680A03F118026D
:102500000621304804F08EF92648F7EE000AB7EEAF
:10251000000AC03003F0DAF82248F7EE000AB7EEFE
:10252000000AF03003F0D2F8DFF89880264DDFED96
:10253000278A9FED278ADFF89CA0274CDFF89CB004
:10254000DFF89C90012700BF0AF018FE0090207869
:1025500000B3287810B1607858B114E000F042F868
:102560007068C0ED048AD8F8040080ED048A2F70EA
:1025700013E09AF8000008B1032804D19BED020A89
:1025800084ED050A677099F8000020B1012804D194
:1025900005F014FD01E003F005F9022168460AF098
:1025A0008DF8D1E7DC100020000000005C1D002049
:1025B000000048430000C84398D6000800401C466D
:1025C0000060EA46241E00200000002000C02845CC
:1025D00000E0D3454C000020B4000020AC180020DF
:1025E000090000202DE9F84F0AF0C8FD584E0746B3
:1025F000DFF8608170684FF4805A4FF00009B0F93D
:102600000C104FF4C77B00EE101AB8EEC00A80ED34
:10261000040A70688089A0F68C2005B2D8F80400FE
:102620008089A0F5D0507C3804B2554502DDA5F56F
:10263000005504E015F5805F02DA05F500552DB26E
:10264000544502DDA4F5005404E014F5805F02DA7D
:1026500004F5005424B2C82D06DDC82C04DD002387
:102660003D49CDF800901CE06FF0C700854206DAC6
:10267000C82C0FDD0023384ACDF8009021E0C82D8A
:1026800007DDC82C11DA00234FF4FA62CDF8009070
:102690000FE008DA844206DA00234FF4FA61CDF83D
:1026A00000900A461FE0C82D05DD00231A46CDF82C
:1026B0000090294917E0854206DA00231A46CDF832
:1026C00000904FF4FA610EE0C82C04DD0023224A8A
:1026D000CDF8009006E0844208DA00234FF4FA6255
:1026E000CDF8009000211D4809F0A6FCC7345C45D8
:1026F00002D8C7355D4506D90AF040FDC01B41F23E
:10270000883188421FD300231A4619461348CDF852
:10271000009009F091FC70689FED110A80ED040AA9
:10272000104890ED020A104880ED050AD8F8041010
:102730009FED0E0A81ED040A0D4991ED000A80ED2E
:10274000060ABDE8F88F012008F0CEFE61E7000020
:102750005C1D0020241E002030F8FFFF40040020F4
:1027600000C02845AC180020B400002000E0D3458C
:10277000D819002078B50024009490F83C20012A54
:1027800019D0012280F83C200A6807230568092A2D
:1027900013D9EE680A3A02EB420293409E43EE6080
:1027A0000B788A680A3B03EB43039A400368DD68B1
:1027B0002A43DA6010E0022078BD2E6902EB420263
:1027C00093409E432E610B788A6803EB43039A4043
:1027D00003681D692A431A614A681F23072A13D216
:1027E00005686E6B521E02EB820293409E436E633D
:1027F0000A8893B20A79521E02EB82029340026861
:10280000556B2B43536327E005680D2A12D22E6BBC
:10281000D21F02EB820293409E432E630B790A88FB
:10282000DB1F92B203EB83039A4003681D6B2A43BC
:102830001A6311E0EE6A0D3A02EB820293409E4366
:10284000EE620B790A880D3B92B203EB83039A4048
:102850000368DD6A2A43DA621B4B0568194A9D4208
:102860000AD10D68122D07D1556825F40005556071
:10287000556845F48005556005689D421DD1134D8E
:102880000B68AB4201D0112B17D1536823F480039E
:102890005360536843F4000353600968A9420CD1A4
:1028A0000B490C4A0968B1FBF2F101EB81014900C7
:1028B00000E0491E00910029FBD180F83C40002037
:1028C00078BD0000002301400020014012000010EC
:1028D0004000002040420F000021084A084600BF87
:1028E00032F81030401C194480B289B20A28F7D35C
:1028F0000A20B1FBF0F00249088070475C03002019
:10290000140000207047704770B504004FF00005B8
:1029100003D0206C002610B107E0012070BD2046D6
:1029200000F01CF8666484F83C60206CC00610D48B
:10293000206C20F4885040F0020020642046FEF70E
:10294000ADF86664206C20F0020040F001002064C5
:1029500000E0012584F83C60284670BD70B586B063
:10296000064614216846FDF7E7FC1D493068884299
:1029700034D11C480025016841F480710160006871
:1029800000F48070059017481438016841F0010187
:1029900001600068694600F0010005904020009049
:1029A0000320CDE90105104800F0D8FE104C0F4877
:1029B000C4E900050015A560C4E90350400060614A
:1029C0008000A0614011C4E907052046656200F05F
:1029D000E9FD08B1FFF73BF8B463A66306B070BD2C
:1029E00000200140443802400000024010640240D0
:1029F000E0030020F8B50E4600210446009190F84F
:102A00003C00012807D0012084F83C00206883683E
:102A1000DB0702D011E00220F8BD836843F0010318
:102A200083603748374B0068B0FBF3F000EB4000A1
:102A300000E0401E00900028FBD120688368DB077F
:102A40005CD0236C40F20165AB4343F48073236494
:102A50004068400505D5206C20F4005040F48050BB
:102A60002064206CC00404D5606C20F00600606413
:102A700000E0616484F83C10A16B2448224DC863D7
:102A8000A16B23480864A16B2248C86421686FF0D9
:102A9000220008602068416841F080614160206840
:102AA000816841F4807181602168134632464C315F
:102AB000A06B00F004FE68681749C006206806D0C5
:102AC00088421BD1816811F0405F13D016E0884224
:102AD000F8D0124A904203D1D1F80423D206F1D0A3
:102AE0000F4A90420AD1D1F8041301F01F011029B6
:102AF000E8D303E0816841F0804181600020F8BDA7
:102B00004000002040420F00002301400D0A000851
:102B1000910A00087B0A00080020014000210140C2
:102B20000022014090F82020012A07D0022A05D077
:102B3000416A41F480214162012070470068426986
:102B40000A43426100207047F0B590F820500468B5
:102B5000A468012D05D0022D03D0416A41F48021E3
:102B600053E014F0406F01D1E5004BD5C4F301648C
:102B7000022C03D9416A41F4000146E00125A54039
:102B80001D608D684FF4C0739DB1CE6835434E68AB
:102B900045EAC605066803EB0417F5514FF4C27504
:102BA000076805EB04150E697E51097D012905D0E2
:102BB00009E00E88CD6845EA4655EBE701684E59B5
:102BC00046F480764E511179D2F805504FF4C6760E
:102BD00041EA0525016806EB04168D511178D2F8FB
:102BE00001204FF4C47541EA0221026805EB041587
:102BF0005151006803EB0411425842F00102425067
:102C00000020F0BD416A41F4001141620120F0BD95
:102C100010B590F82020012A07D0022A05D0416A79
:102C200041F480214162012010BD3B48D0F80022D0
:102C300042F00102C0F80022D0F8002222F47C52B7
:102C4000C0F80022D0F800224B6A42EA0322C0F802
:102C500000220A7D02F01F0301229A40D0F81C32A4
:102C60009343C0F81C32CB69B3B9D0F80C3293430C
:102C7000C0F80C328C894B6864F31F434C6900EB3D
:102C8000C404C4F840320C890B6864F31F434C69D8
:102C900000EBC404C4F84432CB69012B16D1D0F840
:102CA0000C321343C0F80C320C884B6864F31F439A
:102CB0004C6900EBC404C4F840320C89CB6864F35F
:102CC0001F434C6900EBC404C4F844328B69002BE9
:102CD000D0F804320ED01343C0F804320B69002B35
:102CE000D0F8143208D01343C0F81432096A01290D
:102CF00004D008E09343EFE79343F5E7D0F81C12C4
:102D00001143C0F81C12D0F8001221F00101C0F8E4
:102D10000012002010BD000000640040704730B574
:102D200090F82040012C05D0022C03D0416A41F4D8
:102D300080215DE00468002955D02469A40754D09F
:102D40004FF4D874056804EB01142D5915F00405EF
:102D5000956005682D594ED0ED08556005682C59D1
:102D6000C4F34004D4604FF4DA74056804EB011432
:102D70002D5905F00F05156105682D59C5F3072577
:102D8000956105682C59240C54614FF4DC72046879
:102D900002EB0112A4581C700468A458240A5C7049
:102DA0000468A458240C9C700468A258120EDA70AF
:102DB0004FF4DE72046802EB0112A4581C7104681F
:102DC000A458240A5C710468A458240C9C710468FB
:102DD000A258120EDA71006881B1016941F0200138
:102DE0000161002030BDE468A8E7416A41F40011A8
:102DF0004162012030BD6D0D1560AFE7C16841F043
:102E00002001C160EDE70246002092F82010012960
:102E100001D002290CD111688A68520100D5012025
:102E20008A68120100D5401C8968C90000D5401C81
:102E300070472DE9F05F0546006800244669D0F828
:102E400004908768D0F80CB0D0F810A0D0F81880A3
:102E5000F10748D0F90714D001218160B80703D5E4
:102E6000284600F070FA0CE0780702D54FF40064B1
:102E700007E0380702D54FF4805402E0284600F0FE
:102E800061FAF80516D529684FF480708860B80596
:102E900003D5284600F059FA0CE0780502D544F431
:102EA000005407E0380502D544F4804402E0284687
:102EB00000F04AFAF80316D529684FF4803088608C
:102EC000B80303D5284600F042FA0CE0780302D597
:102ED00044F4004407E0380302D544F4803402E0AF
:102EE000284600F033FA300707D55FEACB6004D5F7
:102EF0002968102044F40074C86070074FF0080778
:102F000007D55FEA0B7004D52868C760284600F033
:102F1000A9F9B00706D52868C068800702D02846FE
:102F200000F0A2F9700607D55FEACA6004D52968E7
:102F3000102044F480640861B00607D55FEA0A7087
:102F400004D528680761284600F0CCF9F00606D5BC
:102F500028680069800702D0284600F0C4F9B00351
:102F600008D55FEAC96005D5296810204860284661
:102F700000F0BAF9F00307D55FEA097004D52868B4
:102F80004760284600F0E4F9300446D55FEA49700E
:102F900040D5F00504D55FEAC87001D044F00104C3
:102FA000B00504D55FEA887001D544F002047005CD
:102FB00004D55FEA487001D544F00404300529D5F2
:102FC00018F0700F26D008F07000402815D006DCED
:102FD000102809D020280AD0302816D10AE050281D
:102FE0000ED0602811D10EE044F008040DE044F04A
:102FF00010040AE044F0200407E044F0400404E038
:1030000044F0800401E044F480742868816921F070
:1030100070018161296804204860002C05D0686A2D
:10302000204368622846FFF779FEBDE8F09F70B53F
:10303000040003D094F8200010B104E0012070BD1A
:10304000204600F081F82068016821F0020101604B
:1030500000F07CFC0546052604E000F077FC401BF0
:103060000A2811D8206840688007F6D420680168D3
:1030700041F00101016000F069FC05460BE000F041
:1030800065FC401B0A2806D9606A40F40030606283
:1030900084F82060D2E720684068C007EFD0207E27
:1030A0000128206801683DD021F080010160607E28
:1030B00001282068016838D021F040010160A07E1D
:1030C00001282068016833D021F020010160E07EF2
:1030D0000128206801682ED041F010010160207F96
:1030E00001282068016829D021F008010160607F73
:1030F00001282068016824D021F004010160D4E98E
:1031000002010843D4E90412114308436168491ECF
:1031100008432168C86100206062012084F8200013
:10312000002070BD41F08001C0E741F04001C5E7DB
:1031300041F02001CAE721F01001CFE741F008017A
:10314000D4E741F00401D9E7F0B587B00446142173
:103150006846FDF7F1F83E4B3E48DFF8F0E01968AD
:10316000D4F800C03B4A032502260927103000246A
:10317000491CF4452AD11960012907D1016841F0A1
:1031800000710160006800F000700590106840F068
:10319000080010601068CDE9005600F00800CDE985
:1031A000047069462C48CDE9024500F0D7FA0022A8
:1031B0000521132000F056FC132000F045FC0022EE
:1031C0000521142000F04EFC14203BE0DFF88CE0D9
:1031D000F44539D1D0F800C04CF0806CC0F800C084
:1031E000D0F800C001290CF0806CCDF814C0196033
:1031F00007D1016841F000710160006800F00070C3
:103200000590106840F002001060106802AB00F0FA
:10321000020005904FF44050CDE9000683E8B0006D
:1032200069460F4800F09AFA002205213F2000F07D
:1032300019FC3F2000F008FC00220521402000F08E
:1032400011FC402000F000FC07B0F0BD006400401D
:103250001800002030380240000C02400068004096
:10326000000402407047000010B58AB004466B4667
:1032700002AA0021FFF753FD0298A0F201201128B5
:1032800020D2DFE800F0090909090909090909093B
:10329000091F1F1F1F1F1A000E49C0B208700E49D8
:1032A000C0EB00108C4201D10C4900E00C4901EB4D
:1032B0008000694607F020FB04E006486946401C90
:1032C00007F0E4FA2068416941F0020141610AB067
:1032D00010BD000000020020400400205C1300200C
:1032E000F0150020704770477047000070B5044625
:1032F00090F82000012804D0606A40F40020606249
:1033000018E0022084F820002068016821F0010103
:10331000016000F01BFB05460EE000BF00F016FB4D
:10332000401B0A2808D9606A40F40030606205201A
:1033300084F82000012070BD20684068C007EDD1EE
:10334000606270BD70477047704770477047704744
:1033500070472DE9F0410446876D00F0F7FA064604
:1033600094F835000025022806D08020606584F896
:1033700034500120BDE8F0812068016821F0160179
:1033800001602068416921F080014161206C08B929
:10339000A06C20B12068016821F00801016020685C
:1033A000016821F0010101600BE000F0CFFA801B01
:1033B000052806D92020606504F8345F032060707A
:1033C000D8E720680068C007EFD194F85C103F2070
:1033D0008840B86004F8345F012060700020C9E7BD
:1033E00090F83510022903D08021416501207047F3
:1033F000052180F835100068016821F001010160A5
:10340000002070472DE9F84304464FF00009CDF83D
:10341000009063484FF41651A56D0068B0FBF1F7BA
:103420002E6894F85C10082000FA01F131420FD0A8
:1034300021680A6852070BD50A6822F004020A6064
:1034400094F85C108840A860606D40F001006065F1
:1034500094F85C104FF0010808FA01F0304208D0EF
:1034600021684969090604D5A860606D40F0020032
:10347000606594F85C1004208840304208D02168D0
:103480000968890704D5A860606D40F00400606594
:1034900094F85C1010208840304218D021680968E8
:1034A000090714D5A86020680168490304D500689D
:1034B000000308D5A16C07E00168C90503D40168C1
:1034C00021F008010160216C09B12046884794F879
:1034D0005C1020208840304231D021680968C9063C
:1034E0002DD5A86094F8350005282068016806D01D
:1034F000490347D5006800031DD4616C1CE021F02E
:10350000160101602068416921F080014161206C51
:1035100008B9A06C20B12068016821F008010160A1
:1035200094F85C103F208840A86084F8349084F8B8
:103530003580216D1FE0E16B09B120468847606D41
:1035400000282BD0606DC00714D0052084F835000A
:103550002068016821F0010101600098401C009082
:10356000B84203D820680068C007F6D184F83490C8
:1035700084F83580E16C002910D001B02046BDE808
:10358000F04308470168C905D5D4016821F010014E
:10359000016084F8349084F83580CCE7BDE8F88386
:1035A000400000202DE9F041044600F0CFF9064626
:1035B0005CB1002584F83450022084F8350020687E
:1035C000016821F0010101600DE00120BDE8F081FA
:1035D00000F0BCF9801B052805D920206065032078
:1035E00084F83500F2E720680068C007F0D122684F
:1035F000116820480140D4E901031843D4E9033697
:103600003343184363691843A3691843E3691843B4
:10361000236A18430843616A042903D1D4E90B13D0
:1036200019430843106020684069666A20F007016A
:1036300030460E43012704280CD1A06A0643E06AF5
:1036400040B12046FEF7C4F920B14020606584F8FF
:103650003570BAE7206846612046FEF7A5F994F870
:103660005C203F2191408160656584F835700020C1
:10367000ACE700003F8010F070B5044690F83400CD
:10368000002501280CD0012084F8340094F835601E
:103690000020012E06D084F834000225284670BD93
:1036A000022070BD022684F8356060652046FEF772
:1036B000B9F92068016841F001010160EEE72DE9E8
:1036C000F0410446866D90F83400002501280DD0A5
:1036D000012084F8340094F835700020012F07D0C1
:1036E00084F8340002252846BDE8F0810220FBE77B
:1036F000022784F8357060652046FEF793F994F848
:103700005C103F208840B0602068016841F01601DD
:1037100001602068416941F080014161206C20B165
:103720002068016841F0080101602068016841F0EB
:1037300001010160D7E7000070B5044600F006F90A
:103740000546601C02D004480078044400F0FEF8EE
:10375000401BA042FAD370BDD40200202DE9F84FDF
:10376000DFF890B100224FF001084FF0030A4FF04C
:103770000F090BF1040E00BF0B6808FA02F4234096
:10378000A3426ED14D68022D01D0122D0ED1D50865
:1037900000EB850CDCF820505607F70E09FA07F607
:1037A000B5430E69BE402E43CCF820600668550034
:1037B0000F790AFA05FC07F0030726EA0C06AF406A
:1037C000374307604E68012E05D0022E03D0112E1C
:1037D00001D0122E0ED18768CE6827EA0C07AE40C2
:1037E0003E4386604668A6430C79C4F300149440B7
:1037F00034434460C4688E6824EA0C04AE40264317
:10380000C6604C68E4006FD53B4C256845F48045A4
:103810002560246822F0030504F480440094374CAA
:103820002E19D6F8084895072F0F09FA07F5AC436B
:10383000334DA84201D100252EE0324DA84201D1DE
:10384000012529E0304DA84201D1022524E02F4D69
:10385000A84201D103251FE02D4DA84202D1042525
:103860001AE041E02B4DA84201D1052514E02A4D74
:10387000A84201D106250FE0284DA84201D1072515
:103880000AE0274DA84201D1082505E0254DA842B0
:1038900001D1092500E00A25BD402543C6F8085896
:1038A000DBF800405D464E689C43F60300D51C43A0
:1038B0002C60DEF8004075464E689C43B60300D588
:1038C0001C432C600B4D08352C684E689C43F60257
:1038D00000D51C432C60074D0C352C684E689C436A
:1038E000B60200D51C432C60521C102AFFF444AFD2
:1038F000BDE8F88F003C01404438024000300140F0
:10390000000002400004024000080240000C024097
:10391000001002400014024000180240001C024047
:1039200000200240002402400069084000D001202D
:103930007047426931EA020200D10904816170478F
:103940000AB1816170470904FBE700000148806803
:1039500070470000D40200200248816802781144B8
:1039600081607047D40200200B4810B5016841F413
:1039700000710160016841F480610160016841F4F7
:1039800080710160032000F08DF8002000F006F83F
:1039900000F03EF8002010BD003C024010B501468A
:1039A00088B00022192000F05DF8192000F04CF8D2
:1039B00013480024016841F001010160006805A975
:1039C00000F001000690684600F04EF900F07CF926
:1039D0000C494000B0FBF1F10C480B4A491E026053
:1039E00040F2E732C0E90324C0E9011400F0A4FD6D
:1039F00010B1012008B010BD044800F0E9FDF9E75E
:103A00004438024040420F0000000140E80B002013
:103A10000C4882B0016841F480410160006800F404
:103A2000804000900748001F016841F0805101600C
:103A30000068002200F0805000900F21901E02B01C
:103A400000F010B844380240002809DB00F01F02E3
:103A5000012191404009800000F1E020C0F80011F0
:103A600070470000F0B40E4B1B680C46C3F30223F2
:103A7000C3F10705042D00D90425191D072901D21A
:103A8000002300E0DB1E012606FA05F1491E214055
:103A900099409E40761E16403143F0BC05F0FEBAB8
:103AA0000CED00E0064900F0070208684FF6FF033E
:103AB000184040EA0220034A1043086070470000A3
:103AC0000CED00E00000FA052DE9F8431748016805
:103AD00041F0805101600068154F00F080500126D0
:103AE00000903E64FFF732FF05464FF47A78114CA0
:103AF00005E000BFFFF72AFF401B40450DD8606876
:103B0000C003F7D57E64FFF721FF0546464607E070
:103B1000FFF71CFF401BB04202D90320BDE8F88329
:103B200060688003F4D50020F8E7000040380240C8
:103B300000000E42007000402DE9F0470E460500DF
:103B400065D0DFF81481D8F80000F7B200F00F005C
:103B5000B04207D288F80070D8F8000000F00F00DB
:103B6000B04254D128683D4C810712D5400703D597
:103B7000206840F4E05020602878000703D52068D2
:103B800040F4604020602068A96820F0F0000843FD
:103B900020602878C0072DD030496868083901288E
:103BA00012D0022813D0032811D0096889070029F0
:103BB0002DDA216821F0030101432160FFF7C6FEE1
:103BC000814641F2883A0EE009688903EFE7096807
:103BD0008901ECE7FFF7BAFEA0EB0901514502D9D4
:103BE0000320BDE8F0872068696800F00C00B0EBA6
:103BF000810FEFD1D8F80010404601F00F01B1421B
:103C000007D90770006800F00F00B04201D0012012
:103C1000E7E72878400705D52068E96820F4E050F8
:103C2000084320602878000706D52068296920F419
:103C3000604040EAC100206000F056F82168084A60
:103C4000C1F30311515CC840064908600020FFF72A
:103C5000A5FE0020C5E70000003C024008380240F5
:103C60002CD60008400000200F2202600C4A136886
:103C700003F003034360136803F0F00383601368E9
:103C800003F4E053C36012684FF4E05303EAD20236
:103C900002610448006800F00F00086070470000EF
:103CA00008380240003C02400448054900680968A1
:103CB000044AC1F38221515CC84070474000002093
:103CC000083802403CD600080448054900680968E5
:103CD000044AC1F34231515CC840704740000020A3
:103CE000083802403CD60008154810B5006810F0AE
:103CF0000C02144813D01449042A0FD0082A0ED1FC
:103D00000F4C241F2268236802F03F025B0207D594
:103D10002068C0F38810A0FB010106E0084610BD32
:103D20002168C1F38811A1FB00010023FCF7BAFA56
:103D30002168C1F30141491C4900B0FBF1F010BDFD
:103D4000083802400024F400001BB7002DE9F84FAA
:103D5000050076D02878DFF8F8B2BE4CC00749D00D
:103D6000DBF800105846C1F38101012908D0006832
:103D7000C0F3810002280AD1201D0068400206D548
:103D80002068800336D568680028E2D032E0686891
:103D9000B0F5803F10D0B0F5A02F206810D020F4EF
:103DA00080302060206820F4802020606868A0B106
:103DB000FFF7CCFD06460CE0206840F48030F4E7C5
:103DC00040F480202060F7E7FFF7C0FD801B6428E7
:103DD00073D820688003F7D50CE0FFF7B7FD0646DF
:103DE00005E000BFFFF7B2FD801B6428F0D8206813
:103DF0008003F7D42878DFF8608280074FF000094D
:103E00003ED5DBF80010584611F00C0F09D00068C1
:103E1000C0F3810002280BD18D48001F00684002CA
:103E200006D42068800715D5E868012809D111E07B
:103E3000E868B8B10120C8F80000FFF787FD064622
:103E400005E002E1FFF782FD801B0228C0D8206850
:103E50008007F7D52068296920F0F80040EAC10002
:103E600020600DE0C8F80090FFF770FD064604E002
:103E7000FFF76CFD801B02281FD820688007F7D44D
:103E80002878000722D5724E744869696C3671B182
:103E900001210160FFF75AFD074604E0FFF756FDD8
:103EA000C01B022809D830688007F7D50EE0C0F89B
:103EB0000090FFF74BFD074605E083E0FFF746FD66
:103EC000C01B02287ED830688007F7D428784007C6
:103ED00068D5DFF87CA100270AF1380ADAF800007B
:103EE000C0000BD4DAF8001041F08051CAF800107D
:103EF000DAF80000012700F080500090584E30683A
:103F0000C00510D4306840F480703060FFF71EFDAB
:103F1000009005E0FFF71AFD0099401A022851D8D9
:103F20003068C005F6D54A4EA868683601280FD01B
:103F30000528306810D020F001003060306820F093
:103F400004003060A868B8B1FFF700FD00900FE0F2
:103F5000306840F00100F4E740F004003060F7E71B
:103F6000FFF7F4FC0099411A41F28830814264D88D
:103F700030688007F4D50EE0FFF7E8FC009007E01A
:103F8000FFF7E4FC0099411A41F28830814254D88D
:103F900030688007F4D42FB1DAF8001021F0805196
:103FA000CAF80010A869C0B3DBF80010C1F38101A2
:103FB00002294AD00228484607D0C8F86000FFF717
:103FC000C5FC00E039E005463AE04746C8F8600025
:103FD000FFF7BCFC064604E0FFF7B8FC801B022894
:103FE0002BD820688001F7D4D5E907010843A96AD6
:103FF0001C4A490802EB01416A6A41EA82110843FE
:1040000095F82C1040EA01611148001F0160012061
:104010003866FFF79BFC054605E014E0FFF796FCC9
:10402000401B022809D820688001F7D50BE000BFAB
:10403000FFF78CFC401B022802D90320BDE8F88F53
:1040400020688001F4D40020F8E70120F6E70000A2
:10405000083802400038024000004742800E4742C4
:10406000007000400000FFFF70B5040005D000257F
:10407000A56294F8510010B106E0012070BD84F8EB
:104080005050204600F030F8022084F8510020689B
:10409000016821F040010160D4E901010843D4E93D
:1040A00003121143084361690843218B01F4007135
:1040B0000843E1690843216A0843A16A084321686B
:1040C0000860A069042101EA1040616A0843216880
:1040D00048602068C16921F40061C1616565012003
:1040E00084F85100002070BDF0B587B0044614215B
:1040F0006846FCF721F92A48284B22680024284901
:1041000014380225032605279A4227D10A6842F46B
:1041100080520A60096801F480510591016841F0FC
:1041200001010160016801F001010591016841F0A0
:1041300002010160006802AA00F0020005908020E0
:10414000CDE9000582E8D00069461648FFF706FB76
:104150001820CDE900056946134818E0134B9A4230
:104160001AD10A6842F480120A60096801F48011C9
:104170000591016841F0200101600068694600F086
:10418000200005904FF46070CDE90005084802AAB0
:1041900082E8D000FFF7E2FA07B0F0BD003001403E
:1041A0004438024000000240000402400050014038
:1041B000001402402DE9F84F044690F85000002703
:1041C0001D461646894601280DD04FF0010B84F894
:1041D00050B0FFF7BBFB804694F85100BA46012867
:1041E00004D002278EE00220BDE8F88FB9F1000F5D
:1041F0007DD0002E7BD0032084F85100C4F854A059
:10420000C4F83090A686E686C4F838A0A4F83CA08E
:10421000A4F83EA0C4F844A0C4F840A0A068B0F53B
:10422000004F04D12068016841F48041016020689A
:104230000168490603D4016841F040010160E0686B
:10424000B0F5006F606803D030B3012E24D040E099
:1042500008B1012E1CD1206B21680088C86006E0DF
:1042600020688168890709D5216B0988C160206BA6
:10427000801C2063E08E401EE08609E0FFF766FBAD
:10428000A0EB0800A84202D3681C01D031E07DB346
:10429000E08E0028E4D11FE0206B216800780873CD
:1042A00006E020688168890709D5216B09780173C8
:1042B000206B401C2063E08E401EE08609E0FFF783
:1042C00045FBA0EB0800A84202D3681C01D010E017
:1042D00075B1E08E0028E4D142462946204603F01D
:1042E000D9FF08B120206065A06820B107E008E090
:1042F000FFE7032706E02068C16880680090606DD2
:1043000000B1012784F851B084F850A038466BE71B
:104310002DE9F84F044690F8500000270A9E1D46EC
:1043200092468B464FF0010901280ED0012084F8F7
:104330005000FFF70BFB804694F85100616801289C
:104340000CD0B1F5827F07D102E00220BDE8F88FE2
:10435000A16809B9042801D00227C2E0BBF1000F0F
:1043600027D0BAF1000F24D01DB394F851000428CF
:1043700002D0052084F8510000206065C4F838A000
:10438000E587A587C4F830B0E586A586206460641B
:1043900020680168490603D4016841F040010160CA
:1043A000E068B0F5006F606805D0E8B3012D46D035
:1043B0007FE0012795E008B1012D39D1206B2168FC
:1043C0000088C860206B801C2063E08E401EE08661
:1043D0002EE02068816889070FD5E18E69B1B9F1B7
:1043E000010F0AD1216B0988C160206B801C2063FA
:1043F000E08E401EE0864FF0000920688168C90702
:104400000CD0E18F51B1C068A16B0880A06B801CFB
:10441000A063E08F401EE0874FF00109FFF796FA96
:10442000A0EB0800B04200E009E001D3701C50D1BD
:10443000E08E0028CDD1E08F0028CAD13FE0206B6C
:10444000216800780873206B401C2063E08E401EBA
:10445000E0862EE02068816889070FD5E18E69B17A
:10446000B9F1010F0AD1216B09780173206B401C4F
:104470002063E08E401EE0864FF0000920688168CE
:10448000C9070CD0E18F51B1C068A16B0870A06B57
:10449000401CA063E08F401EE0874FF00109FFF74A
:1044A00055FAA0EB0800B04202D3701C01D010E016
:1044B0007EB1E08E0028CDD1E08F0028CAD14246DF
:1044C0003146204603F0E6FE28B101272020606532
:1044D00007E0032705E0A06818B92068C168806874
:1044E0000090012084F85100002084F850003846E4
:1044F0002CE77047704770B590F83C20012A19D01E
:10450000012400F83C4F0222427050F83C3C5A68AB
:104510009D6822F070060A684968324325F08005DC
:1045200029435A6050F83C2C91604470002101707E
:10453000084670BD022070BD10B5040003D094F889
:104540003D0010B107E0012010BD002084F83C00C0
:10455000204600F00DF8022084F83D00211D20685F
:1045600004F0F6F8012084F83D00002010BD0000A2
:1045700008B500680B49884212D10B48016841F028
:10458000100101600068002200F010000090052179
:104590003620FFF767FABDE808403620FFF754BA27
:1045A00008BD00000010004040380240022180F8A1
:1045B0003D1001688A6802F00702062A03D00A68E3
:1045C00042F001020A60012180F83D10002070478E
:1045D0000168CA6842F00102CA600068816801F09F
:1045E0000701062903D0016841F0010101600020A4
:1045F0007047704770B50446006801694FF00005C8
:10460000C943890715D4C168C943890711D4E91E74
:10461000016101202077206880698007204602D050
:10462000FFF7E7FF04E000F0F3F8204600F0A0F900
:10463000257720680169C943490717D4C168C94370
:10464000490713D46FF0040101610220207720682C
:10465000806910F4407F204602D0FFF7CAFF04E0D3
:1046600000F0D6F8204600F083F92577206801692C
:10467000C943090716D4C168C943090712D46FF0AA
:1046800008010161042020772068C0698007204666
:1046900002D0FFF7AEFF04E000F0BAF8204600F0C9
:1046A00067F9257720680169C943C90617D4C1682D
:1046B000C943C90613D46FF01001016108202077A7
:1046C0002068C06910F4407F204602D0FFF791FFB8
:1046D00004E000F09DF8204600F04AF925772068B4
:1046E0000169C943C90708D1C168C943C90704D1D1
:1046F000891E0161204600F05FF920680169C94305
:10470000090609D4C168C943090605D46FF08001C0
:1047100001612046FFF7EDFE20680169C9434906A3
:1047200009D4C168C943490605D46FF0400101614D
:10473000204600F05BF920680169C94389060BD463
:10474000C168C943890607D46FF020010161204682
:10475000BDE87040FFF7CEBE70BD000010B586B05A
:10476000044614216846FBF7E7FD23680021224830
:104770000222B3F1804F17D0204CA34226D1036808
:1047800043F002030360006800F00200059020205F
:104790000090CDE90121CDE903121948694600BF17
:1047A000FEF7DCFF06B010BD036843F001030360B1
:1047B000006800F00100059003200090CDE9012180
:1047C0000120CDE9031069460E48E9E70E4CA342EB
:1047D000E8D1036843F080030360006800F08000C4
:1047E000059040200090CDE901210920CDE903107A
:1047F00069460648D4E70000303802400004004013
:10480000000402400000024000180040001C02406A
:10481000704770B5044690F83C000D4601280DD055
:10482000012684F83C60022084F83D0042B1042A4D
:1048300018D0082A2AD00C2A4DD139E0022070BDA8
:10484000206803F0F7FF2068816941F00801816169
:104850002068816921F004018161206881692A69E9
:10486000114311E0206804F015F82068816941F4D3
:10487000006181612068816921F480618161206823
:1048800081692A6941EA0221816124E0206804F0FB
:1048900037F82068C16941F00801C1612068C16929
:1048A00021F00401C1612068C1692A69114311E046
:1048B000206804F059F82068C16941F40061C161C1
:1048C0002068C16921F48061C1612068C1692A69D9
:1048D00041EA0221C16184F83D60002084F83C0077
:1048E00070BD10B5040003D094F83D0010B107E08E
:1048F000012010BD002084F83C00204600F00CF898
:10490000022084F83D00211D206803F021FF0120D2
:1049100084F83D00002010BD08B501681148B1F1D0
:10492000804F0BD0104A914210D1016841F0020132
:104930000160006800F00200009008BD016841F0CD
:1049400001010160006800F00100F5E7074A9142AB
:10495000F3D1016841F040010160006800F04000BF
:10496000EAE7000040380240000400400018004020
:104970007047000010B504460068012203F04CFFA8
:104980000B492068884202D00A49884203D1416C11
:1049900041F4004141642068816801F00701062963
:1049A00003D0016841F001010160002010BD00004A
:1049B000000001400004014010B5044600680849A9
:1049C000884204D14FF4FA51064807F065FB0649C6
:1049D0002068884203D1BDE81040FEF7BDBF10BD7E
:1049E000001000404004002000000140704710B556
:1049F00004460068416994F83920C1F3C011212AA6
:104A00000BD151B1416921F080014161206B08B1A6
:104A1000FEF79FFC204604F077F82068416994F87F
:104A20003A20C1F38011222A0BD151B1416921F002
:104A300040014161606B08B1FEF78BFC204604F039
:104A400055F8002010BD704770B502680446106824
:104A5000D168536910F00F0F51D003F0010501F434
:104A6000907635435DD0C20705D0CA0503D5E26B09
:104A700042F00102E263420705D5DA0703D0E26B98
:104A800042F00202E263820705D5DA0703D0E26B47
:104A900042F00402E263020705D5DA0703D0E26BB5
:104AA00042F00802E263E26B002A34D0800604D5AB
:104AB000880602D5204604F030F820684069E16B92
:104AC000C0F3801001F008010143204624D004F017
:104AD0000DF82068416949061AD5416921F0400165
:104AE0004161606BA0B11B490165606BFEF778FC0A
:104AF000002810D0606B016DBDE870400847830648
:104B00000FD58B060DD52046BDE8704004F005B8E2
:104B10002046FFF798FF70BDFFF795FF0020E06388
:104B200070BD030606D50B0604D52046BDE87040CF
:104B300004F094B94006F3D54806F1D5D168204673
:104B400021F04001D160202184F8391000F00BFAE7
:104B500070BD00004D8A000870B5040004D094F8C0
:104B60003900002510B106E0012070BD84F83850EE
:104B7000204600F023F8242084F839002068C1681A
:104B800021F40051C160204604F012F82068016948
:104B900021F4904101612068416921F02A014161BD
:104BA0002068C16841F40051C160E563202084F8A9
:104BB000390084F83A00002070BD00002DE9F04F64
:104BC00087B0054614216846FBF7B6FB9E48DFF820
:104BD00074821038D5F800C000249B4B02210122BA
:104BE0000326DFF868E207154FF0080A4FF0206B44
:104BF0004FF48079C44533D1D3F800C04CF0804CD9
:104C0000C3F800C01B6803F080430593036843F0BA
:104C100010030360006800F010000590F0018DE8BB
:104C2000470469467046FEF799FD8A4E8848306011
:104C3000C6E901B4C6E903477461C6E906493462AE
:104C400030467462FEF7AEFC08B1FCF700FF6E63FD
:104C5000002205215220B563FEF704FF52203CE0FC
:104C6000DFF8F481C4453DD1D3F800C04CF0004CCE
:104C7000C3F800C01B6803F000430593036843F0CA
:104C8000100303600068CDE9006100F01000CDE979
:104C900004A0CDE9022669467046FEF75FFD6D4E21
:104CA0006B48603648303060C6E901B4C6E9034756
:104CB0007461C6E906494FF40030C6E9080430467D
:104CC000FEF770FC08B1FCF7C2FE6E6300220521FE
:104CD0005320B563FEF7C6FE5320FEF7B5FE07B0BE
:104CE000BDE8F08FDFF874814FF0070EC44555D151
:104CF000554B1B1DD3F800C04CF0100CC3F800C07E
:104D00001B6803F010030593036843F0010303607D
:104D1000036803F001030593036843F00203036093
:104D200000688B4600F0020005904FF40070CDE95A
:104D3000000BB0460292CDE9038E92467646694654
:104D40004748FEF70BFD8020CDE9000BCDF808A009
:104D5000CDE9038669464348FEF700FD3D4E4248D3
:104D6000C03630604FF00060C6E90104C6E9034771
:104D70007461C6E906494FF44030C6E9080430467C
:104D8000FEF710FC08B1FCF762FE6E6300220521FD
:104D90002520B563FEF766FE25209EE7DFF8CC8070
:104DA000C4459CD1D3F800C04CF4802CC3F800C09B
:104DB0001B6803F480230593036843F00203036038
:104DC000036803F002030593036843F008030360DC
:104DD00000688B4600F0080005904FF40060CDE9B4
:104DE000000B0292CDE9036E9246F04669461D48DB
:104DF000FEF7B4FCCDF808A0CDE90368CDE9009B2F
:104E000069461B48FEF7AAFC11481A4E303830603C
:104E10004FF00060C6E90104C6E903477461B4615C
:104E2000F461346230467462FEF7BCFB08B1FCF7F3
:104E30000EFE6E63002205212720B563FEF712FEE9
:104E400027204AE700780040403802400010024026
:104E500058600240F00E0020007C0040001001402D
:104E6000000002400004024040640240004800404C
:104E7000000C024010100020F8B5044690F83A00EB
:104E800020283CD1C1B3BAB394F83800012836D0F9
:104E9000012084F83800A162A2850025E563222064
:104EA00084F83A00636B1748D863636B164818643C
:104EB000636B1648D864606B134605650846666BDD
:104EC000216802463046091DFEF7F9FB206801689B
:104ED0004168009184F83850C16841F48071C16024
:104EE0002068416941F0010141612068416941F058
:104EF000400141610020F8BDFFE70120FBE70220EF
:104F0000F9E70000A78A0008E38A00085D8A000824
:104F100090F83A30202B22D1F9B1F2B190F8383024
:104F2000012B1CD081628285C2850021C1632222AF
:104F300080F83A2080F838100168CA6842F480721C
:104F4000CA6001684A6942F001024A610068C168AA
:104F500041F02001C160002070470120704702200D
:104F60007047704770477047FEE710B580216B208F
:104F700005F02EFD3220FEF7DFFB0721682005F04B
:104F800027FD3220FEF7D8FB01216B2005F020FD24
:104F90003220FEF7D1FB00211C2005F019FD322044
:104FA000FEF7CAFB03211D2005F012FD3220FEF79B
:104FB000C3FB18211B2005F00BFD3220FEF7BCFBC4
:104FC00000216C2005F004FDBDE810403220FEF702
:104FD000B3BB000008B500244FF4FA770A4D012650
:104FE00008F0CCF8009000F099F940B12878641CE2
:104FF000012802D0BC4200D92E7000F007F8012130
:10500000684607F05BFBEBE7B400002070B5B448DE
:105010002DED088B00F034FAB14ED6ED050A9FED68
:10502000B10A60EE800A9FEDB09A80EE891AD6ED43
:10503000040A60EE801AC1EE890AD6ED031A61EE09
:10504000801A81EE890A9FEDA93AD6EC031AB0EED8
:10505000434AF0EE433A01F0A7F8A54CA6F1100040
:10506000B0EE008A94ED070A80ED000AD4ED081A2C
:1050700060EE003AC0ED011AD4ED090A60EE219A03
:10508000C0ED020A94ED0A1A21EEA12A60EE202A50
:1050900020EE013A21EEA04A20EEA00A20EE81AADD
:1050A00080ED031A61EE811A61EE010A33EE821A75
:1050B000C4ED0E3AC4ED0F9AC4ED102A31EE401A39
:1050C00084ED113A84ED122A84ED134A71EE605A90
:1050D00034EE031AC4ED141A84ED150A84ED16AAF1
:1050E00021EE085A31EEE21A71EEA21A8830C4EDB0
:1050F000170A61EE084A34EE431AC0ED005A80EDFB
:10510000015AC0ED024A21EE084A33EEC21A80ED80
:10511000034A31EE003A31EE401A33EE606A3AEE5D
:10512000293A71EE208A80ED046A63EE086A21EE66
:10513000883A7AEE691AC0ED056A80ED063A61EEAA
:10514000887AC0ED077AC0ED088AD6ED000A2430CF
:10515000C0ED000A96ED011A80ED011AD6ED021A93
:10516000C0ED021AD6ED03AADFED622AA0F5907514
:105170006AEEA23AC5ED043AD6ED043A23EEA27ADD
:1051800085ED037A96ED057A67EE222AC5ED052AAC
:1051900065EEA02AC5ED06AAC5ED073A85ED087AA9
:1051A00044EE012A43EE212AC5ED092A65EE202AA4
:1051B00064EEA00A46EE012A46EE810A47EEA12AD5
:1051C00048EEA10AC5ED0A2A9FED4B1A32EE000AFD
:1051D000F7EE00AA70EEC10AF0EE6A8A40EE488A45
:1051E000C5ED0B0A18EE900AFBF769FA39EE8A0A48
:1051F00041EC1B0B20EE080A10EE100AFBF75FFAD9
:1052000041EC100BB0EE4B1AF0EE6B1A04F074FA8E
:105210009FED3ABB51EC100B53EC1B2BFBF73EF907
:105220009FED381B53EC112BFBF7AAF9FBF772FA31
:10523000686094ED100AD4ED140A30EE600A20EE96
:10524000080A06F097FE20EE090ADFED300A80EE2C
:10525000201AF8EE000A85ED001A94ED150A20EEEA
:10526000200AD4ED170A00EEC80A30EE2A0A10EE22
:10527000100AFBF724FA94ED130AD4ED110A41EC5D
:10528000190B20EE080A00EE880A10EE100AFBF750
:1052900016FA41EC100BB0EE491AF0EE691A04F060
:1052A0002BFA53EC1B2B51EC100BFBF7F7F89FED8F
:1052B000181B53EC112BFBF763F9FBF72BFA00EEED
:1052C000100AB5EEC00AF1EE10FA03D2DFED120AB1
:1052D00030EE200A85ED020ABDEC088B70BD00009F
:1052E00030190020DB0F494000003443000000006B
:1052F000100200200000C84283C01C4100000000D2
:105300000080664000000060FB210940DB0F49C0BF
:1053100000000060FB2109C00000B44370B5554D8A
:105320002DED028B86B0687801286FD0524C4FF477
:10533000FA7600286CD16946881D00F017FBA88812
:10534000401C80B2A880B04262D2B5F90600FBF7DB
:1053500086F941EC180B2068FBF7B1F953EC182BD8
:10536000FAF7F5FFFBF7D6F92060B5F90800FBF76F
:1053700076F941EC180B6068FBF7A1F953EC182B98
:10538000FAF7E5FFFBF7C6F96060B5F90A00FBF72D
:1053900066F941EC180BA068FBF791F953EC182B58
:1053A000FAF7D5FFFBF7B6F9A060B5F90C00FBF7EB
:1053B00056F941EC180BE068FBF781F953EC182B18
:1053C000FAF7C5FFFBF7A6F9E060B5F90E00FBF7A9
:1053D00046F941EC180B2069FBF771F953EC182BD7
:1053E000FAF7B5FFFBF796F92061B5F91000FBF766
:1053F00036F941EC180B6069FBF761F953EC182B97
:10540000FAF7A5FFFBF786F960612EE02EE0FFE7D3
:10541000A888B04229D101206870D4ED000A9FED20
:10542000170A154880EE801A4C3880ED0C1AD4ED1E
:10543000010A80EE801A80ED0D1AD4ED020A80EE8A
:10544000801A80ED0E1AD4ED030A80EE801A80EDEA
:105450000F1AD4ED040A80EE801A80ED101AD4EDF4
:10546000050A80EE801A80ED111A002006B0BDEC0E
:10547000028B70BD10020020F81800200000FA43D3
:1054800030B585B0694605460C46881D00F06EFAB9
:105490000021DFED120A9FED120A01E003290CDA68
:1054A00034F9110001EE100A05EB8100B8EEC11AC3
:1054B00021EE201A80ED001A0BE034F9110001EE04
:1054C000100A05EB8100B8EEC11AC1EE001AC0ED5A
:1054D000001A491C0629E1DB05B030BD0000803808
:1054E0006F12834110B50C480B4CD0F802003D3CC4
:1054F00000EE100A84ED080AD4ED090AF4EE400A21
:10550000F1EE10FA04D0E08A401CE08284ED090A32
:1055100007F034FE606310BDCD0200200148008911
:1055200070470000C5240020014800787047000043
:10553000900200202DE9F04704004FF0000709D049
:10554000514D2068A863207985F83C002078A52873
:1055500003D095E00120BDE8F0870521204603F047
:1055600009FDDFF824814FF0010908F1380804F142
:105570000906012878D161782046093103F0DCFC66
:10558000012871D1B4F80500012740F20122A0F2F0
:105590000121904237D012DC40F20112A0F2011139
:1055A000904221D006DC012811D0022815D0032812
:1055B00052D115E001291BD002294DD11FE0072946
:1055C0004AD2DFE801F049242B3033394000B4F8E7
:1055D00007002883607AA8763EE0E079A8713BE076
:1055E000B4F80700E88137E0D4F80700286333E017
:1055F000B4F80700A5F81B00607A68772CE0B4F8CF
:105600000700288228E00F22E11D204803E01F4800
:105610000E22E11D0F30FAF776FE1DE01B48102226
:10562000E11D1D30F7E7E079E87115E0B4F80700F7
:105630006882607A28750FE0E079287200090BD142
:1056400085F8019008E054F8070FC5F83D00A088E0
:10565000A5F84100FFF746FFB8F80100815DA529D4
:105660000BD13044FFF766FFB8F80100815DA52932
:1056700002D13044FFF75EFF17B185F8009001E0DA
:1056800000202870384666E790020020B6240020EB
:1056900000B505F0CFF80C494878002808780DD0FF
:1056A00068B100224A7001280CD002280AD00328D1
:1056B00008D0042806D0052804D002E008B901204B
:1056C0004870002000BD0000790200209FED0A1AFA
:1056D00080ED001A80ED051A80ED090AC0ED0A0A76
:1056E000B7EE000A80ED070A80ED081A80ED0B0A7C
:1056F00080ED011A7047000000000000D0ED071A8D
:10570000D0ED000A21EEA01A80ED011AD0ED090AB1
:1057100090ED052A41EE820AC0ED030AD0ED0A1A87
:1057200030EEA12AC0EE821A30EE412AB0EE410AD4
:10573000B7EE001AC0ED061A31EE611A01EE820AC8
:1057400061EE200A80ED020AC0ED040AC0ED050AF0
:1057500080ED000A7047000010B5FBF763FD0C48B0
:10576000DFED0C0A4068B0F90C00A0F68C2000EECA
:10577000100A0948B8EEC00A20EE200AFBF722FA08
:1057800006484168BDE81040054801F023B8000014
:105790005C1D0020ACFF333DD01000203C1A0020DF
:1057A000AC000020F8B54B4E00274B4C7770B7701B
:1057B00060684B4DB0F90C0000EE100A4748B8EE97
:1057C000C00A80ED000A6968B1F90C1000EE101AE9
:1057D000B8EEC00A80ED020AFCF742FC3F4861685F
:1057E000103890ED000A81ED040A90ED020A686815
:1057F00080ED040A707850BB60689FED3A0A103063
:10580000FBF77AFA6068D0ED040AB0F90C0000EEFC
:10581000100A04F10800B8EEC00A02F0A3F894EDF3
:105820000B0A6168BDEEC00A10EE100A00B2C8860D
:10583000616800EE100AB1F93400F8EEC00A00EE1B
:10584000100A04F16800B8EEC00A02F08BF8B078D4
:1058500060BB6868DFED240A9FED240A103000F079
:1058600065F86868D0ED040AB0F90C0000EE100A83
:105870001B48B8EEC00A083002F074F895ED0B0A28
:105880006968BDEEC00A10EE100A00B2C8866968E9
:1058900000EE100AB1F93400F8EEC00A00EE100A6A
:1058A0000F48B8EEC00A683002F05CF8009795ED3A
:1058B000230A0023BDEEC00A10EE100A94ED230A5D
:1058C00002B2BDEEC00A10EE100A01B2084806F09E
:1058D000B3FBF8BDB40000205C1D00203C1200208A
:1058E000241E0020000000460030C14500B8E245FB
:1058F000400400200B480C490278097844F62060E7
:10590000092A0ED2DFE802F0050505050D0D0D0D83
:10591000050009B1012904D103461A46114602F0D7
:10592000B7BD70474C0000200800002090ED001A21
:10593000B4EEC01AF1EE10FA02DD80ED000A7047F5
:10594000B4EEE01AF1EE10FAF9D2C0ED000A704799
:105950000022114630F91130491C1A440529F9DB9F
:10596000052092FBF0F000B2704700002DE9F047EF
:105970000E4607460E224F493B2004F0F9FF4D49E1
:105980004D4C4C4B0888523342BA207801F15C0AE6
:1059900001F1660923F810204B8801F184085BBAF5
:1059A0002AF810308B885BBA29F81030CA8801F1C8
:1059B000700352BA23F810200B8901F17A025BBA06
:1059C00022F810304D896DBA28F8105001F18E057B
:1059D000898949BA25F810100521401CB0FBF1F364
:1059E00001FB130020701046FFF7B2FFE080404635
:1059F000FFF7AEFF20812846FFF7AAFF6081B4F9C8
:105A00000610F23D00EE101AD5ED0C0AB8EEC00AF1
:105A100030EE600ABDEEC00A10EE101A3980B4F9FB
:105A20000810D5ED0D0A00EE101AB8EEC00A30EEDF
:105A3000600ABDEEC00A10EE101A00EE100A79805E
:105A4000D5ED0E0AB8EEC00A30EE600ABDEEC00A0F
:105A500010EE100AB88005F1B600FFF779FFA081BB
:105A60005046FFF775FFE0814846FFF771FF20823F
:105A7000B4F90C10D5ED0F0A00EE101AB8EEC00AFA
:105A800030EE600ABDEEC00A10EE101A3180B4F993
:105A90000E10D5ED100A00EE101AB8EEC00A30EE66
:105AA000600ABDEEC00A10EE101A7180B080BDE829
:105AB000F087000010190020100200207FB500249C
:105AC00015480094019402941249039401604FF424
:105AD0008031C0E9011401250461057680F8204079
