:020000040800F2
:10000000886E002081020008D1780008695C000831
:100010008F770008750D000811A700080000000088
:10002000000000000000000000000000C101000806
:10003000091A0008000000001D020008A59D000824
:100040009B0200089B0200089B0200089B0200081C
:100050009B0200089B0200089B0200089B0200080C
:100060009B0200089B0200089B0200089B020008FC
:10007000291900089B020008351900089B02000896
:100080009B020008411900089B020008850D00082A
:10009000790D00089B0200089B0200089B020008E3
:1000A0009B020008AD9E00089B0200089B0200080E
:1000B0009B0200089B0200089B0200089B020008AC
:1000C0009B0200089B0200089B0200089B0200089C
:1000D0009B0200089DA600089B020008B5A6000828
:1000E0009B0200089B0200089B0200089B0200087C
:1000F000C59E00089B0200089B0200089B020008A6
:100100009B0200089B0200089B0200089B0200085B
:100110009B0200089B020008B99E00089B02000891
:100120004D1900089B020008591900089B0200089D
:100130009B0200089B0200089B0200089D0D00081E
:10014000910D00089B0200089B0200089B0200081A
:100150009B0200089B0200089B0200089B0200080B
:100160009B0200089B0200089B0200089B020008FB
:100170009B0200089B0200089B0200080000000090
:100180009B0200089B020008F9A1000811A20008C8
:100190009B0200089B0200089B0200089B020008CB
:1001A00000000000000000009B020008DFF80CD0F7
:1001B00000F0E2FB0048004711C70008886E0020ED
:1001C0002C4B19680868B0E8F04F80F30988BFF33A
:1001D0006F8F4FF0000080F311887047000000001F
:1001E00008480068006880F308884FF0000080F33A
:1001F000148862B661B6BFF34F8FBFF36F8F00DF15
:1002000000BF00BF08ED00E0DFF80C00016841F41A
:1002100070010160704700BF88ED00E0EFF30980D6
:10022000BFF36F8F134B1A681EF0100F08BF20ED3D
:10023000108A20E9F04F106009B44FF0500080F3AD
:100240001188BFF34F8FBFF36F8F0EF0C3F84FF0DD
:10025000000080F3118809BC19680868B0E8F04F05
:100260001EF0100F08BFB0EC108A80F30988BFF3AE
:100270006F8F7047FC050020EFF30580704700008A
:100280000648804706480047FEE7FEE7FEE7FEE730
:10029000FEE7FEE7FEE7FEE7FEE7FEE7599E000801
:1002A000AD0100082DE9F05F0546002092469B460F
:1002B00088460646814640241BE02846414647467C
:1002C000224600F052FA53465A46C01A914110D3C2
:1002D00011461846224600F039FA2D1A67EB01083C
:1002E0004F4622460120002100F030FA17EB0009AA
:1002F0004E41201EA4F10104DFDC484631462A4667
:100300004346BDE8F09F40EA01039B0703D009E0A4
:1003100008C9121F08C0042AFAD203E011F8013BF1
:1003200000F8013B521EF9D27047D2B201E000F84A
:10033000012B491EFBD270470022F6E710B5134689
:100340000A4604461946FFF7F0FF204610BD2DE986
:10035000FE4F804681EA0300C00F0C46009021F05A
:10036000004123F00045B8EB0200A94105D2404608
:10037000214690461C460B46024623F0004010439F
:1003800047D0270DC7F30A00C3F30A510290401A61
:10039000019040286BDAC3F3130040F4801B0098EF
:1003A000924620B10023D2EB030A63EB0B0B0198BA
:1003B0005946C0F14002504600F0C8F906460D46C5
:1003C00050465946019A00F0E0F910EB08006141EF
:1003D000002487EA115284EAE7731A4340D0009A56
:1003E00062B3019A012A4FEA075215DC001B61EB48
:1003F00002014FF0004202EA0752CDE90042001C20
:1004000041F5801132462B4600F017FA03B0BDE8E3
:10041000F08F40462146F9E7001B61EB0201001C0A
:1004200041F5801300185B412018A2F5001747EB37
:10043000030140EAD570B6196D4111E06D084FEA2D
:10044000360645EAC0754FEA0752001B61EB020110
:10045000001C41F5801149084FEA30000019514154
:1004600032462B4603B0BDE8F04F00F0D7B90098F4
:10047000012240000023D0EB020263EBE0730098FE
:1004800021464FEAE074B8EB000061EB0401E9E7B4
:1004900083F000435BE781F0004158E72DE9FE4F10
:1004A00081EA030404F0004421F0004100944FF07D
:1004B000000B23F0004350EA01045ED052EA03042B
:1004C0005BD0C3F30A54C1F30A552C44A4F2F334AD
:1004D0000194A0FB0254C1F3130141F48011C3F352
:1004E000130343F4801301FB024400FB034E840A10
:1004F000970A44EA815447EA8357A4FB07680295A8
:100500008D0A05FB07854FEA932C04FB0C54270545
:10051000029D4FEA065847EA1637B5EB08056EEB21
:10052000070C870E920E47EA811742EA8312A7FB57
:100530000201B6EB0B0164EB00042B0D43EA0C3314
:100540005E1844EB1C50DA465146E7FB0201C5F346
:1005500013044FEA0B3343EA14534FEA0432019C6D
:1005600043EA0603A4F10C040294009CCDE900B414
:1005700000F063F903B0BDE8F08F00200146F9E711
:100580002DE9F04D81EA030404F0004B21F0004511
:1005900014464FF0000A23F0004150EA050220D033
:1005A00054EA01021DD0C5F30A570246C5F31303EE
:1005B000C1F31300C1F30A5640F4801543F48013CD
:1005C000A7EB0608101BD64608F2FD3873EB0500B2
:1005D00002D308F1010801E092185B41B8F1000F65
:1005E00003DA00200146BDE8F08D00204FF48011B1
:1005F000064684460EE0171B73EB050705D3121B56
:1006000063EB050306434CEA010C49084FEA30004E
:1006100092185B4150EA0107EDD152EA030012D073
:1006200082EA040083EA0501084305D0101BAB41B0
:1006300006D20122002306E000224FF0004302E030
:100640006FF0010253101AEB06004CEB085110EB4F
:100650000A0041EB0B01BDE8F04D00F0DFB80EB52C
:10066000C10F80EAE0700844CA07002140F233431A
:100670008DE80E000A460B4600F0DFF803B000BD1F
:1006800070B5C1F30A5201F000450024C1F3130113
:1006900040F2FF3341F480119A4201DA002070BD2C
:1006A00040F233439A42A2F2334203DC524200F05A
:1006B0005CF800E090402C43F1D0404270BD00F067
:1006C000004230F000400AD0C10D01F56071C0F366
:1006D000160042EA0151C20840071143704700204A
:1006E0000146704730B5041E71F1000404DB4FF081
:1006F0000044404264EB0101141E73F1000405DB69
:100700001C464FF00043524263EB0403994208BF7A
:10071000904230BD01F0004330B421F0004150EA76
:10072000010206D00A0DA2F56072C1F31301002A7E
:1007300002DC30BC00207047440F44EAC104C10011
:10074000E01830BC00EBC25000F031B8202A04DBC6
:10075000203A00FA02F1002070479140C2F12003D4
:1007600020FA03F3194390407047202A04DB203A13
:1007700021FA02F00021704721FA02F3D040C2F1C1
:1007800020029140084319467047202A06DBCB1708
:10079000203A41FA02F043EAE07306E041FA02F33C
:1007A000D040C2F120029140084319467047002909
:1007B000A8BF7047401C490008BF20F001007047E7
:1007C00010B4B0FA80FC00FA0CF050EA010404BF47
:1007D00010BC704749B1CCF1200421FA04F411FA9D
:1007E0000CF118BF012121430843A3EB0C01CB1DE1
:1007F0004FEA00614FEA102042BF002010BC704752
:1008000000EBC35010440029A4BF10BC7047401C2B
:10081000490008BF20F0010010BC704710B5141E3D
:1008200073F1000408DA401C41F1000192185B41A9
:100830001A4301D120F0010010BD2DE9F04D924680
:100840009B4611B1B1FA81F202E0B0FA80F2203297
:100850009046FFF77BFF04460F4640EA0A0041EA54
:100860000B0153465A46084313D0114653EA010080
:1008700019D0C8F140025046FFF777FF05460E46F3
:10088000504659464246FFF761FF084305D0012014
:1008900004E020463946BDE8F08D0020054346EAD5
:1008A000E0762C4337430A986305E40AA0EB08007E
:1008B0000022FD0A44EA47540A3002D500200146CE
:1008C000E9E7010510196941DDE9084500196941A9
:1008D000BDE8F04DA2E72DE9F04D00231A461B1AA2
:1008E0008A4103DB00200146BDE8F08DC1F30A52C6
:1008F000C1F3130141F480154FF0000BD10702D171
:1009000000186D41521E0027044640F2FF11384680
:1009100001EB620A3E468046024600204FF48011F9
:10092000FFF723FFC2197141BB1846EB0100B4EB7E
:10093000030C75EB000C04D3E41A65EB00051746B5
:100940000E46241908F101006D4180463428E3DD8C
:10095000F91946EB0600091BA84103D24FF0FF32FC
:10096000134601E0002213461BEB070046EB0A5139
:10097000BDE8F04DFFF752BF064C074D06E0E068BA
:1009800040F0010394E8070098471034AC42F6D3D6
:10099000FFF710FCC0000108E00001080EB540F2AE
:1009A000334102910021CDE900110A460B46FFF7C1
:1009B00044FF03B000BD70B58C1810F8015B15F052
:1009C000070301D110F8013B2A1106D110F8012BC1
:1009D00003E010F8016B01F8016B5B1EF9D12B07E6
:1009E00005D40023521E0DD401F8013BFAE710F89C
:1009F000013BCB1A921C03E013F8015B01F8015B89
:100A0000521EF9D5A142D8D3002070BD10B50146C1
:100A1000806B026C12F0500F05D0026CD20626D506
:100A200002F0D1FD10BD016C41F400710164016858
:100A30008A6812F0405F17D1027EAAB9CA6A12F41E
:100A4000700F02D08A6852050ED44A6822F0200244
:100A50004A60016C21F480710164016CC90403D403
:100A6000016C41F00101016402F096FD10BD806B44
:100A7000C26CBDE810400846104710B5806B40219D
:100A80000164416C41F00401416402F09CFD10BD21
:100A900010B5806B02F096FD10BD0000464910B500
:100AA0004A6822F440324A604A6843681A434A60FE
:100AB00001684A6822F480724A6001684A680369E2
:100AC00042EA03224A6001684A6822F040724A60A2
:100AD00001684A6883681A434A6001688A6822F498
:100AE00000628A6001688A68C3681A438A60816A02
:100AF0006FF07062D14201688A6822F070628A6089
:100B000001688A680CD0836A1A438A6001688A681F
:100B100022F040528A6001688A68C36A1A4301E081
:100B200022F040528A6001688A6822F002028A60DC
:100B300001688A68037E42EA43028A6090F82010C6
:100B4000002901684A680FD042F400624A600168D7
:100B50004A6822F460424A6001684A68174C436A56
:100B600004EB43331A4301E022F400624A60016857
:100B7000CA6A22F47002CA620168CA6A838B104C86
:100B800004EB03531A43CA6201688A6822F40072B4
:100B90008A6001688A6890F8303042EA43228A60AD
:100BA00001688A6822F480628A6001688A68406904
:100BB00042EA8020886010BD0023014000E0FFFF72
:100BC0000000F0FFDFED3B0A10B520EE200ADFED5C
:100BD0003A0A04462DED068B80EE208A84B090ED13
:100BE000020A8DED020A18EE100AFFF768FD41ECCB
:100BF000100B0AF0E5FAB0EE409AF0EE609A6068E9
:100C0000FFF75DFD53EC192BFFF748FC41EC190B86
:100C100018EE100AFFF753FD41EC100B0AF060FAD2
:100C2000B0EE40AAF0EE60AA2068FFF748FD53EC52
:100C30001A2BFFF733FC53EC192BFFF729FCFFF7B6
:100C400069FD009018EE100AFFF739FD41EC100B1A
:100C50000AF046FAB0EE409AF0EE609A6068FFF74C
:100C60002EFD53EC192BFFF719FC41EC190B18EE74
:100C7000100AFFF724FD41EC100B0AF0A1FAB0EEC8
:100C8000408AF0EE608A2068FFF719FD53EC182BBC
:100C9000FFF704FC53EC192BFFF759FBFFF73AFD64
:100CA0000190064968460BF06FFD04B0BDEC068B61
:100CB00010BD0000DB0F494000003443AC000020B1
:100CC000BEEE001AD0ED000A20EE011AF4EEC10AC1
:100CD000F1EE10FA02D230EE800A0AE0B6EE001A07
:100CE00020EE011AF4EEC10AF1EE10FA03DD30EE47
:100CF000C00A80ED000A7047BEEE001AD0ED000A6F
:100D000020EE011AF4EEC10AF1EE10FA02D230EE32
:100D1000800A0AE0B6EE001A20EE011AF4EEC10ACB
:100D2000F1EE10FA03DD30EEC00A80ED000A7047E4
:100D300030B50C4605000CD0022C0AD90548A11E7E
:100D40000288284602F0C8F9291901F8020D000AA4
:100D5000487030BDEC04002030B50C46050008D0CA
:100D6000022C06D9FF22611E02F0CCF9291901F8E4
:100D7000010C30BDFEE70000014802F0BABE0000E1
:100D800058070020014802F0B4BE000058070020B8
:100D9000014802F0AEBE000080070020014802F0CA
:100DA000A8BE0000800700207047000070B500EE6C
:100DB000100A2DED088BB8EEC00A5F4C84ED0F0AC7
:100DC00000EE101AB8EEC00A84ED160A00F074FFA7
:100DD000BDEEC00A10EE100A05B200EE105AB8EED1
:100DE000C00ADFED560A20EE200ADFED550A20EE9C
:100DF000208AD4ED130A94ED120A18EE100A70EE50
:100E0000808A94ED140AD4ED150A30EE209AFFF78B
:100E100056FC41EC100B0AF0D3F9B0EE40AAF0EE0C
:100E200060AA19EE100AFFF74AFC53EC1A2BFFF7E1
:100E300035FB41EC1A0B18EE100AFFF740FC41ECB1
:100E4000100B0AF04DF9B0EE40BAF0EE60BA18EEB1
:100E5000900AFFF734FC53EC1B2BFFF71FFB53ECFE
:100E60001A2BFFF715FBFFF755FC364E306018EED6
:100E7000100AFFF724FC41EC100B0AF031F9B0EE38
:100E800040AAF0EE60AA19EE100AFFF718FC53EC26
:100E90001A2BFFF703FB41EC190B18EE100AFFF7B2
:100EA0000EFC41EC100B0AF08BF9B0EE40AAF0EE0C
:100EB00060AA18EE900AFFF702FC53EC1A2BFFF71A
:100EC000EDFA53EC192BFFF742FAFFF723FC7060A1
:100ED00062890021012022B1012A08D0022A19D1F9
:100EE0000FE04FF67C42A2816172608112E04FF404
:100EF0007C42A281617215F52F7F0BDA022161819C
:100F000007E04FF48062A2816172B5F52F7F01DDA9
:100F100060816072B4F90C00D4ED0C0A281A00EE5E
:100F2000100A0848B8EEC00A603807F0D1FC86ED18
:100F3000020ABDEC088B70BD500000200000003993
:100F4000560EC9C0581400200348407808B100204C
:100F50007047012070470000500000200B489FEDB3
:100F60000A0ADFED0C0A80ED0D0ABAEE040A80EDE4
:100F70000C0A9FED070A80ED0E0A80ED0F0AB7EE0E
:100F8000000A054805F058BA000020425000002031
:100F900000A00C4600000000C813002070B51B48DC
:100FA0001B4C0025408A18B9206AB0F57A7F02D917
:100FB0000220207027E00120607005F013F9617AAB
:100FC00081431BD0144D9FED130A84ED110A85ED6A
:100FD000000A85ED010AB4F90C00D4ED0C0A404278
:100FE00000EE100AA5F16000B8EEC00A07F070FC30
:100FF00085ED020A206A401C206270BD322142F257
:101000002830FFF7D3FE256270BD00005E1E002071
:1010100050000020000000005814002070B52DED95
:10102000088B00F049FEBDEEC00A10EE100A04B2B3
:1010300000EE104AB8EEC00ADFED440A20EE200AA6
:10104000DFED430A434D20EE208AD5ED130A95EDDE
:10105000120A18EE100A70EE808A95ED140AD5ED8A
:10106000150A30EE209AFFF72AFB41EC100B0AF02C
:10107000A7F8B0EE40AAF0EE60AA19EE100AFFF74A
:101080001EFB53EC1A2BFFF709FA41EC1A0B18EE72
:10109000100AFFF714FB41EC100B0AF021F8B0EE38
:1010A00040BAF0EE60BA18EE900AFFF708FB53EC76
:1010B0001B2BFFF7F3F953EC1A2BFFF7E9F9FFF7B6
:1010C00029FB254E306018EE100AFFF7F8FA41ECC4
:1010D000100B0AF005F8B0EE40AAF0EE60AA19EE87
:1010E000100AFFF7ECFA53EC1A2BFFF7D7F941EC93
:1010F000190B18EE100AFFF7E2FA41EC100B0AF098
:101100005FF8B0EE40AAF0EE60AA18EE900AFFF782
:10111000D6FA53EC1A2BFFF7C1F953EC192BFFF752
:1011200016F9FFF7F7FA04F5806400EE104A7060D4
:10113000D5ED0C0AB8EEC00AA6F1600007F0C8FBB6
:1011400086ED020ABDEC088B70BD0000000000397E
:10115000560EC9C0500000205814002007489FEDCB
:10116000060A80ED110A064880ED000A80ED010AAA
:1011700080ED020A704700000000000050000020CF
:10118000581400200B4810B5418A0B48CA0701D0FB
:10119000890602D40221017010BD01214170032192
:1011A00040F6B83000F0A4F9BDE8104042F2283013
:1011B00000F0ACBA5E1E0020500000202DE9F04186
:1011C000384C00250126A078012801D16670A57051
:1011D00001F05CFB00B1657022783349022742F2CE
:1011E0002830092A2AD2DFE802F0294B29051F29D5
:1011F0002B2F3300498A890501D4E67007E0E17896
:1012000029B1E5702179491C01F001012171217991
:1012100049B166700A21804600F06AF932214046E1
:10122000FFF7C4FD00E0277001F030FB20B16570CE
:10123000BDE8F041FFF792BF27706670BDE8F0810E
:10124000BDE8F041FFF79EBFBDE8F041FFF7A6BE45
:10125000498AC90401D4667107E0617929B16571D1
:10126000A179491C01F00101A171A17931B10A21D3
:1012700000F03EF9BDE8F041FFF7D0BE2770DDE792
:10128000488A400501D4E67107E0E07928B1E571AC
:10129000207A401C00F001002072207A0028EDD056
:1012A000CCE70000500000205E1E0020401EC0B2AF
:1012B000C0EB001110B5124800EB8104A089218F0A
:1012C000401A00B2B0F5805F02DDA0F5005004E0E6
:1012D00010F5805F01DA00F50050A086A089208714
:1012E000B4F9340000EE100A0648B8EEC00A05F062
:1012F000BBF8BDEEC00A10EE100AA08610BD0000BB
:101300002419002024150020704700003C484FF4A9
:1013100000512DED048B82B0C16400219FED390A8C
:10132000016580ED000A9FED380ADFED390A80ED96
:10133000150A9FED360A384A80ED160A9FED350AE8
:1013400007F0BCFB9FED378ADFED348A9FED349ABE
:10135000314BF0EE681A303BB0EE491AF0EE480A15
:10136000B0EE480AA3F10C0201212F4806F010FA52
:10137000294BF0EE681A243BB0EE491AF0EE480A09
:10138000B0EE480AA3F118020221284806F000FA3C
:10139000214BF0EE681A183BB0EE491AF0EE480AFD
:1013A000B0EE480AA3F124020321214806F0F0F927
:1013B000194BF0EE681A0C3BB0EE491AF0EE480AF1
:1013C000B0EE480AA3F1300204211A4806F0E0F911
:1013D000194C00BF0DF0BCFC009001F053FE05F06D
:1013E0002FFA207820B1012804D107F049FE01E04E
:1013F00005F068F8022168460CF07CFEEAE7000080
:10140000F81300200000C842CAF24971CDCC4C3E0E
:10141000A69B443B8FC2753C5CF2000800401C4612
:1014200000409C460000000004200020CC2000204A
:10143000942100205C22002009000020034800784D
:10144000032801D000207047012070475000002081
:10145000F0B507462DED048B81B01D469FED218A26
:1014600016468DED008A0C46B1F90000FFF7F7F83B
:101470009FED1D9B53EC192BFFF710F841EC100B5F
:1014800009F002FF53EC192B51EC100BFFF706F893
:10149000FFF740F900EE100A012F8DED000A19D078
:1014A000B5EEC00AF1EE10FA07DD2088401B00B24D
:1014B0002080002801DA00202080F7EE000AB0EE3C
:1014C000480A684605F0D8F99DED000A01B0BDEC68
:1014D000048BF0BD10EE100AB0F17E5FEDDA2088CB
:1014E0003044E9E700000000333333333333C33F84
:1014F000F0B500EE100A2DED0A8B81B0B8EEC00AEF
:10150000F7EE008A7A4CCDED008A84ED0E0AE18177
:101510000DF01EFC774EA062774996ED020AB0EE00
:10152000C08A18EE100A884244DDD4ED0F8A28EEF6
:10153000A80A10EE100AFFF7C2F841EC190B18EEDA
:10154000100AFFF7BCF841EC1A0B18EE900AFFF7EF
:10155000B6F853EC1A2BFEF79BFF9FED68BB53ECDC
:101560001B2BFEF7F4FE41EC1A0B18EE100AFFF7E6
:10157000A6F841EC1C0B18EE900AFFF7A0F853EC0C
:101580001C2BFEF785FF53EC1B2BFEF7E0FE53EC04
:101590001A2BFEF783FF53EC192BFEF7F1FFFFF731
:1015A000B9F8F7EE000A9FED570A0090684605F07B
:1015B00063F901E0CDED008AD4E90A0188427DD3C8
:1015C000514D0A30E062688A4FF00001C20700D036
:1015D0006182820700D52182020700D5E18242079D
:1015E00000D5A182E1894FF4FA770AB2404900F0B0
:1015F00001003B461031FFF72BFFD4ED0E0A3B46AE
:1016000020EE200ABDEEC00A10EE100A00B200EE75
:10161000100AB8EEC00A84ED120AE189A87C0AB269
:101620003349C0F340001231FFF712FFD4ED0E0A28
:101630003B46F1EE600A20EE200ABDEEC00A10EE35
:10164000100A00B200EE100AB8EEC00A84ED130AC8
:10165000E189A87C0AB22649C0F380001631FFF761
:10166000F7FED4ED0E0A3B46F1EE600A20EE200AAA
:10167000BDEEC00A10EE100A00B200EE100AB8EE7D
:10168000C00A84ED140AE189A87C0AB21849C0F3A3
:10169000C0001431FFF7DCFED4ED0E0A20EE200A64
:1016A000BDEEC00A10EE100A00B200EE100AB8EE4D
:1016B000C00A84ED150A2078032800E014E013D056
:1016C000D4ED130A94ED121A30EE811ADDED000A02
:1016D00021EE201A86ED001A94ED141A31EE000A5C
:1016E00020EE200A86ED010A01B0BDEC0A8BF0BDA8
:1016F0005000002058140020000048440000000062
:1017000000008940000000005E1E002038B51A4924
:10171000DFED1A0A1A4C91ED020A1A4D30EE600AFA
:101720008DED000A00EE100AB8EEC01A84ED0F1A13
:101730006078012811D01448D4ED0D0AB0F90A00E0
:1017400000EE100AB8EEC00A20EE200AF1EE410ABF
:101750000AF079FC85ED020A38BD9FED0C0A684657
:10176000FFF7AEFA0748D4ED0C0A9DED000A603889
:1017700007F0AEF8EEE70000741E002000C0284518
:1017800050000020581400205E1E0020000000467B
:101790002DE9F041284D294C4FF00107688A810559
:1017A00000D4E770C10400D4677181054FF00006D2
:1017B0000ED580060CD401F069F848B9E07838B14C
:1017C000E6702079401C00F001002071032005E044
:1017D000688AC10705D0800603D506202070BDE8C1
:1017E000F08104F0FFFC10B101F050F820B101F0DD
:1017F0004DF818B10420F1E70720EFE7688AC1042B
:101800000ED5800612D401F041F848B9607938B19C
:101810006671A079401C00F00100A0710820DDE78E
:10182000A87C800602D401F031F808B1667000E0AF
:1018300067702670D3E700005E1E00205000002075
:1018400070B52DED028B04F005FD054604F0FCFC9F
:1018500000EE100A2E4CB8EE408A94ED230A0AF0EE
:1018600085F92C48F0EE408A90ED230A0AF07EF9C3
:10187000294878EE808A90ED230A0AF077F9274804
:1018800078EE808A90ED230A0AF070F938EE800A2B
:1018900023498DB100204862D1ED070AB4EEE08AF9
:1018A000F1EE10FA13D288EE201A61EE010A91EDE2
:1018B000061A60EE810A0CE0486A401C48626428FF
:1018C00002DCD1ED100A06E0DFED160A01E0D1EDF1
:1018D000060AC1ED100AB4EEE00AF1EE10FA13DDCB
:1018E000D4ED231A81EE801A21EE201AC1EE001ADF
:1018F00021EEA01AC1EE001A21EEA01AC1EE001AC4
:1019000021EEA00A84ED230ABDEC028B70BD00001D
:1019100004200020CC200020942100205C22002004
:101920005000002000401C46014802F0CBBB0000E4
:1019300068130020014802F0C5BB000048120020D7
:10194000014802F0BFBB0000A8120020014802F0CD
:10195000B9BB0000F8060020014802F0B3BB00004C
:101960000813002001681823CAB2103AB2FBF3F240
:10197000054B6FF30901032A9B5CC36500D9091D60
:1019800081650846704700003CFE000810B501461E
:1019900000208B698A6A4FF0C07453B1B3F5005FC1
:1019A00015D072B1012A0CD0022A0AD0032A09D11B
:1019B00004E01AB1012A06D0022A03D1C96AC9017A
:1019C00000D5012010BDC96AA142FAD010BD002A7D
:1019D000F7D0012AF2D0022AF3D0032AF3D010BDA7
:1019E00030B50468256825F48025256004686360A7
:1019F0008368402B036803D099600068C26030BDE3
:101A00009A600068C16030BD7047704710B51248D9
:101A1000124C007828B11248007801280CD048B147
:101A20000AE000209FED0F0A608084ED040A84ED37
:101A3000030A01E000F018F800F0B4F994ED040A8C
:101A4000BDE81040BDEEC00A10EE100A01B210EE63
:101A5000100A00B208F0AEBA00000020B405002061
:101A600009000020000000002DE9F041434F2DED5A
:101A7000028B97ED040ADFED420A80EE208A00F027
:101A800005FF404E404C30B10420608004F124003A
:101A900090ED040A3EE0307C0325012802D100F0DD
:101AA000E1FE48B1708A01050CD5012060803648FE
:101AB000243090ED010A2DE033486580243090ED0C
:101AC000030A27E0000406D5022060802E48243057
:101AD00090ED020A1EE000F0C5FE0028ECD0787DF3
:101AE00001282BD02088401C00B22080142808DB5D
:101AF000C820208024486580243090ED030A84EDBE
:101B0000050A00F043FC38B1052060801E482430EF
:101B100090ED050A84ED050A307C012806D094ED8D
:101B2000040AB5EEC00AF1EE10FA03DD94ED050AE1
:101B300084ED040ABDEC028BBDE8F081002020801A
:101B400094ED020A94ED011A78EE400A31EE401A43
:101B500080EE810AB7EE001ADFED0C0A0AF073FA84
:101B60000948243090ED031AD0ED010A31EE601AD5
:101B700041EE000AC4ED050AC3E700005C2A00201C
:101B80000000C8425E1E0020B405002000000000D6
:101B90004648474A4068B0F90C00A0F5B0518E396C
:101BA00000EE101AA1F50061F8EEC01A00EE101A4E
:101BB000A0F28E61A0F68E60B8EEC01A00EE101A88
:101BC0004FF08B41F8EEC00A00EE100A11EE900AB9
:101BD000B8EEC00A9FED372A884202DD71EEC21AC4
:101BE00005E011EE900A904201D971EE821A11EED1
:101BF000100A884202DD31EE421A05E011EE100AA9
:101C0000904201D931EE021A10EE900A884202DDAC
:101C100070EEC20A05E010EE900A904201D970EE13
:101C2000820A10EE100A884202DD30EE420A05E018
:101C300010EE100A904201D930EE020ABDEEE12A00
:101C400012EE100ABDEEC12A002812EE101A00DAB8
:101C50004042002900DA4942884201DAB0EE611AB6
:101C6000FDEEE01A11EE901AFDEEC01A002911EEF9
:101C7000900A00DA4942002800DA4042814201DA43
:101C8000B0EE600AFDEEC10A10EE901AFDEEC00A39
:101C9000002910EE900A00DA4942002800DA40429A
:101CA000814201DAB0EE410A70470000242300208F
:101CB000000080C50000004620484FF08B429FED99
:101CC000211A4068B0F90C00A0F68C2100EE101A21
:101CD000A0F28E201A49F8EEC00A00EE100A10EEAB
:101CE000900AB8EEC00A904202DD70EEC10A05E02B
:101CF00010EE900A884201D970EE810A10EE100AA7
:101D0000904202DD30EE410A05E010EE100A8842F2
:101D100001D930EE010ABDEEE01A11EE101ABDEE47
:101D2000C01A002911EE100A00DA4942002800DA30
:101D30004042814201DAB0EE600A7047242300205D
:101D4000000080C50000004610B500F08BFDA8B172
:101D50000E48408A010511D400040FD404F098FA0B
:101D600000EE100ADFED0A0AB8EEC00A20EE200AE3
:101D7000BCEEC00A10EE100A80B210BD0548A0F1FA
:101D80001801498830F8110010BD00005E1E0020C7
:101D90003333B33FCC050020014890ED030A704770
:101DA000B40500201448B1EE041AD0ED030A90EDFA
:101DB000040AF4EEC00AF1EE10FA0CD270EE810AB9
:101DC000C0ED030AF4EEC00AF1EE10FA07DD00BF21
:101DD00080ED030A03E002DD30EEC10AF8E790ED82
:101DE000030AB5EEC00AF1EE10FA03D29FED030A22
:101DF00080ED030A70470000B405002000000000D9
:101E00002DE9F05F2DED028BDFEDFE8ADFF8F8A300
:101E100000270AF5FE708AF805708AF8067008F047
:101E2000D1FC0AF5017008F0CBFC0AF5B87008F097
:101E3000F5FC0AF58075F54895ED1C0A04F014FBD5
:101E400085ED1C0A08F008FDDFF8C49305F58678D7
:101E5000A5F18006E8B105F1FC0099ED010AD0ED8D
:101E6000000A9AED181A00F1080100EE810A86EDC9
:101E70001C0A99ED020AD1ED000A9AED191A00EE3A
:101E8000810A86ED1D0A08F095FC0CF061FFC8F888
:101E90000000D8E90010DF4C81420BD0081A206501
:101EA00096ED1C0A86ED1A0A96ED1D0A86ED1B0AB0
:101EB000C8F80410DFF860B39BF81500012844D07F
:101EC0000CF046FF0146C84699ED010AD34808F0D8
:101ED0003FF984ED010A0CF03BFF0146CF4898ED35
:101EE000020A1C3008F034F9CC4884ED020A98ED5F
:101EF000010AF0EE680A38300AF0F2FAE867C448DE
:101F000098ED020AF0EE680A9C380AF0E9FA2060BF
:101F1000C5ED1B8AFFF792FAC14A10B11078032869
:101F200037D095ED148A00BF9BF81510DFF8E092CA
:101F3000DFF8F0B2A9F11009012931D09AF80300B5
:101F400000287DD001287CD002E296ED1A0AB34821
:101F500008F0FEF884ED010AB048D8F8001096EDBC
:101F60001B0A1C3008F0F4F884ED020AAB48D4EDEB
:101F7000010A96ED1A0A38300AF0B2FAE867A44866
:101F8000D4ED020A96ED1B0A9C380AF0A9FA2060EB
:101F9000C0E795ED140AF0EE080A20EE208AC3E7A8
:101FA000BAF810309C485B1CAAF81030C07DD046AF
:101FB000514601280BD11078032808D095ED0E0A60
:101FC00088ED1A0A95ED190A81ED1B0A7AE0FFF7F0
:101FD00035FAB8B300F0DAF9A0B395ED0F0A404630
:101FE00088ED1A0AD5ED190AC8ED1B0A95ED160AF7
:101FF00086ED010ABBF8121049050FD595ED101AB0
:1020000080ED1A1A9FED881A60EE810AC8ED1B0A4E
:10201000DFED860A20EE200A86ED010AE86FAA4667
:1020200090ED010ADFED820A454620EE201ABDEE52
:10203000C11A88ED1F1A90ED001A61EE200A02E025
:102040003FE151E136E0FDEEE00ADFF8C881B3463A
:1020500008F17C08C6ED000AD8ED000A9AED121AC4
:10206000F0EEE00AF4EEC10AF1EE10FA7ED2288A10
:1020700000EE900AF8EE600AF4EEC80AF1EE10FAEB
:102080007FDDDBED010AB0EEC01A5646B4EEE01A71
:10209000F1EE10FA75DBD6ED171AB4EEE11AF1EE97
:1020A00010FA6ED2B5EEC00AF1EE10FA0DDB30EE8A
:1020B000600A11E095ED0E0A88ED1A0A95ED190AED
:1020C00088ED1B0A95ED150AA6E7B5EEC00AF1EEFC
:1020D00010FA07D230EE200AD5ED1A0A20EE200AB7
:1020E00086ED1B0A96ED191A96ED1B0AF1EE410AD0
:1020F00009F0A9FF86ED1B0A95ED1E1AD4ED150A0D
:1021000006F064FD84ED150A96ED191AF1EE410A08
:1021100009F099FF84ED150AF06FD0ED000A30EE5A
:10212000800A89ED010A90ED010A0120B5EEC00A8E
:10213000F1EE10FA0ADD3F4AD8F80010914205DAB4
:10214000AF816989491C89B269810EE0B5EEC00A88
:10215000F1EE10FA10D2384AD8F8001091420BD2A2
:102160006F81A989491C89B2A98100E009E009B100
:10217000A87104E0AF7102E0AF716F81AF81687147
:10218000EF81288ADAED140A00EE100A5146B8EE03
:10219000400AB4EEE00AF1EE10FA32DD1D48D1ED4E
:1021A000130A843090ED000AB0EEC00AB4EEE00AE3
:1021B000F1EE10FA25D22068D1ED180A90ED010A4F
:1021C000B0EEC00AB4EEE00AF1EE10FA76DD00F0EF
:1021D000FDF810B100F0DAF898B90F489FED171A22
:1021E000174BD0ED040A80EE810A10EE102A9A42B5
:1021F00064DAC07D91ED110A012834D085ED1C0A06
:1022000020E05BE000000000B40000208415002006
:1022100074180020340200205C2A002034170020AB
:10222000500000205E1E0020CDCC8C3FCDCCCC3E9B
:1022300000007A449A99993E9A9999BE0000C84242
:10224000CDCC8C4091ED1A0A85ED1D0A206890EDE9
:10225000010AB5EEC00AF1EE10FAD1ED180A11DB51
:1022600030EE600A10E0F6EE000A20EE200AF7EEEB
:10227000080A85ED1C0A91ED1A0A80EE201A85EDF8
:102280001D1AE3E730EE200AD5ED1C0A20EE200AE5
:1022900084ED160A95ED1D1AF1EE410A09F0D3FE00
:1022A00084ED160A2068D0ED000A30EE800A00BFE7
:1022B00089ED020ABDEC028BBDE8F09F9BED1D0A83
:1022C000F6E7BBF90C1099ED020A00EE901A95EDB5
:1022D0000A1AF8EEE00A00EE810A89ED020A9FED83
:1022E000290A89ED000A33E0BBF90A1095ED0D1AB1
:1022F00000EE101AF8EEC00A94ED0B0A00EE810A07
:1023000084ED0B0ABBF90C0095ED0C1A00EE100AD7
:10231000F8EEC00A94ED0C0A00EE810A84ED0C0A76
:10232000F9B1376628B377664D4699ED010AD4EDC9
:102330000A0A154806F07CFE85ED010A124895ED63
:10234000020AD4ED090A001D06F072FE85ED020AAC
:10235000AAF81070AAF80A70AAF80C70AAF80E7001
:10236000A8E7316E491C31661929DBD9C4ED0B8A07
:10237000D8E7706E401C70661928D5D9C4ED0C8A58
:10238000D2E7000000C02845600200200B48DFEDC6
:102390000C0A90ED020A0B4830EE600AD0ED0C0AF0
:1023A000B4EEE00AF1EE10FA03D90748408A40057E
:1023B00001D50120704700207047000074180020EC
:1023C0000030C145340100205E1E00200D489FED05
:1023D0000E0AD0ED020A0D4830EEC00A80ED0E0A5A
:1023E000D0ED0C0AB4EEE00AF1EE10FA08D8D0ED08
:1023F0000D0AB4EEE00AF1EE10FA01DD012070479B
:1024000000207047741800200030C14534010020BE
:102410002DE9F0412DED028B9FED688A684808F0A8
:10242000ABF9DFF8A081684D684C98F808000027E8
:1024300040B1687D082805D198ED080A84ED020AAC
:1024400088F8087008F008FA5D4E743EA0B196ED69
:102450001D0AD6ED1E0A5D48103030EE200AD0ED80
:10246000010A30EE800A86ED000A08F0A3F90CF0AC
:102470006FFC06F58671086052486A7D80305449C9
:1024800000F58075082A30D098F80320EAB3012AB5
:1024900054D1B1F90A2096ED0D1A00EE102AF8EE8B
:1024A000C00A95ED0B0A00EE810A85ED0B0AB1F921
:1024B0000C1096ED0C1A00EE101AF8EEC00A95ED0D
:1024C0000C0A00EE810A85ED0C0ADAB38767D1B3F6
:1024D000C0F87C703A4894ED010AD5ED0A0A38300C
:1024E00006F0A6FD84ED010A1EE096ED000A84EDDB
:1024F000010A98F80320B0EE080A2AB3012A1DD178
:1025000096ED0C1AC1EE000A00E034E0B1F90C10AF
:1025100000EE101AB8EEC01A95ED0C0A01EE200A72
:1025200085ED0C0AF9B1C767254894ED020AD5ED8F
:10253000090A3C3006F07CFD84ED020ABDEC028BFA
:10254000BDE8F0812AE031E0D6ED0A0AB1F90C00CD
:1025500080EE801A00EE900A94ED020AF8EEE00A8E
:1025600000EE810AE8E7C16F491CC1671929DBD970
:1025700085ED0C8AD8E7B1F90C0094ED020A00EE63
:10258000900A96ED0A1AF8EEE00A00EE810A84ED50
:10259000020A9FED100A84ED000ACFE7826F521CF9
:1025A0008267192A93D985ED0B8A90E7C16F491C80
:1025B000C16719298ED985ED0C8A8BE700000000D0
:1025C00028020020B40000205C2A002064180020AB
:1025D0005E1E002000C028452DE9F05F2DED028B26
:1025E0009FED658ADFF89481654F08F1800598F8C2
:1025F0000700A7F1100605F1800460B1002188F8FA
:10260000071085ED078A97ED010A84ED010A96ED22
:10261000020A84ED020A95ED070AF7EE008A30EE11
:10262000280A85ED070A08F017F9DFF858A1DFF846
:1026300058B10AF1940958B39BF81600012801D04B
:10264000022825D14D488C3008F0E7F84B489030EF
:1026500008F0E2F895ED030ADAED040A9AED031AA0
:1026600070EE200A95ED040A30EE010A97ED011A8A
:1026700071EE200AC4ED030AD7ED020A30EE800A9B
:1026800084ED040A0CF064FBC9F8000008F092F82D
:10269000D9E90012914204D08B1ACAF86030C9F807
:1026A00004109BF81600DFF8E4A0D946012831D0C9
:1026B00002282FD094ED060A354930EE280A10EE94
:1026C000100A84ED060A884207DD94ED010A86EDC2
:1026D000010A94ED020A86ED020A99F8160078B311
:1026E00084ED058A2B49E86988420FDD97ED010AE0
:1026F000D4ED030A30EE600A88ED0A0A97ED020A6B
:10270000D4ED040A30EE600A88ED0B0ABDEC028BB2
:10271000BDE8F09FE869504513DDD7ED010A95ED5E
:10272000051A94ED030A06F051FA86ED010AD7ED79
:10273000020A95ED061A94ED040A06F047FA06E03F
:102740000AE094ED010A86ED010A94ED020A86ED95
:10275000020A84ED068AC0E794ED050A30EE280AE5
:1027600010EE100A84ED050A5045CFDD9FED0A0AF0
:1027700088ED0A0AC8E7000000000000B40000204D
:1027800074180020340200205C2A00200000C84297
:10279000000096430000484300007A44154800F5C5
:1027A000807190ED040AD1ED030AA0F1800130EEB2
:1027B000200AB0EEC00A80ED0B0AD1ED0B0A90EDB5
:1027C0000A1AF0EEE00AF4EEC10AF1EE10FA0ED2A7
:1027D0000948D0ED030AF5EEC00AF1EE10FA06D072
:1027E00010EE100A0549884201DC012070470020E4
:1027F00070470000340100205C2A002000000C42D9
:10280000154800F5807190ED030AD1ED040AA0F19E
:10281000800130EE200AB0EEC00A80ED090AD1ED49
:102820000A0A90ED081AF0EEE00AF4EEC10AF1EEA1
:1028300010FA0ED20948D0ED010AF5EEC00AF1EE09
:1028400010FA06D010EE100A0549884201DC01207A
:102850007047002070470000340100205C2A0020EF
:1028600000000C4203480079082801D0002070477E
:1028700001207047B400002003480179082901D0E5
:102880000020704740797047B40000200548007967
:10289000022805D0052803D0042801D00020704765
:1028A00001207047B400002003480079042801D0BB
:1028B0000020704701207047B400002003480079D1
:1028C000092801D00020704701207047B400002083
:1028D00010B52DED028B9FED748A744880ED0B8A44
:1028E0009FED730AA0F5807280ED0A0A92ED070A47
:1028F000B1EE400A80ED0D0A9FED6E0A00F18001F5
:1029000080ED0C0AB2EE0E0A81ED090A81ED0A0A89
:10291000B3EE040A81ED0D0A81ED0E0AB1EE000A54
:1029200081ED100AB0EE080A81ED110AB2EE000A3C
:1029300081ED0F0A00231371DFED5F0AC0ED0E0A6F
:10294000F2EE040AC0ED0F0ADFED5C0AC0ED110AD9
:10295000DFED5B0AC0ED120A80ED130A9FED590A04
:1029600080ED140A9FED580A80ED150A9FED570A75
:1029700080ED160AB3EE090A80ED170A9FED540A9E
:1029800080ED180A9FED530A80ED190A9FED520A57
:1029900080ED1A0A9FED510AFBEE0B0A81ED030A46
:1029A000C1ED040AB7EE000A81ED050A81ED060AC1
:1029B00081ED070A81ED080AC0ED1E0ADFED488AA5
:1029C000B7EE000A4748F0EE680A03F035FD4548C7
:1029D000F0EE680AB7EE000A303003F02DFD4148F2
:1029E000F0EE680AB7EE000A603003F025FD3D48BE
:1029F000F0EE680AB7EE000A903003F01DFD39488A
:102A0000DFED390AB7EE000A303803F015FD35481E
:102A1000F0EE480AB7EE000AC03003F00DFD314871
:102A2000F0EE480AB7EE000AF03003F005FDF0EED4
:102A3000480AB7EE000A2D4803F0FEFC2B48F0EEE2
:102A4000480AB7EE000A303003F0F6FC27480222AD
:102A5000274B1146DC3009F0CFF8254B23480222E2
:102A600010331146E43009F0C7F821491F48943962
:102A7000983009F0DBFD1E4B0222B43311461D488D
:102A800009F0BAF81A4B1B480222C4331146083029
:102A900009F0B2F8164917482031BDEC028B4438D2
:102AA000BDE8104009F0C2BD00000000B4010020E4
:102AB0006666E63E5C8FC23ECDCC6C41000096421D
:102AC00000001643000048423333B33E9A99993EC2
:102AD000CDCC4C3D00005C430000F042000058C2E9
:102AE00000002042B41500200000FA44D416002053
:102AF000640300201C1800202DE9F0413E483F4CA3
:102B0000404E07790023DFED3E0A728A012194EDE1
:102B1000010A00F5C0750A2F13D2DFE807F0050996
:102B20005118123F121C2D63BDE8F04100F094B81B
:102B3000C170D5ED120AF5EEC00AF1EE10FA02D11D
:102B40000371BDE8F081D5ED0E0A2F480FE0BDE816
:102B5000F04100F05DB8C170D5ED130AF5EEC00A82
:102B6000F1EE10FAECD02848D5ED0E0A001D06F063
:102B70005FFA84ED010AE4E7C170717C012909D094
:102B8000224903714B7503824371837143818381B1
:102B9000C381D6E7BDE8F041FFF732B9940707D10A
:102BA000540705D4140703D4540601D4120612E0C6
:102BB0000371C170C0ED0A0AC0ED0B0AC171C0E714
:102BC0009407F5D15407F3D41407F1D45406EFD485
:102BD0001406EDD45204002AEADBC170BDE8F041CE
:102BE000FFF7FABCC170920402D403710172A8E726
:102BF000BDE8F041FFF70CBCB400002064180020D1
:102C000000007A445E1E00207C0200205C2A002026
:102C100070B50A4D0024EC7004F097FA10B904F076
:102C200093FA48B107489FED060A80ED000A9FED30
:102C3000060A80ED020A70BD2C7170BDB400002040
:102C400000C028456418002000E0D3450148807981
:102C500070470000B40000202DE9F0470CF078F830
:102C6000794C2064FEF770F94FF00108A4F180065A
:102C7000002710B904F068FA08B1F77001E086F88F
:102C80000380DFF8C8917762714DB9F812008106B0
:102C900035D4410413D5D4E9101291420FD986F8E6
:102CA000048001F5FA716164410702D59FED690A5C
:102CB00001E09FED690A85ED120ABDE8F087410643
:102CC00003D5A26C216C914205D8010617D5E26CA0
:102CD000216C914213D907213171410605D5206C31
:102CE000FA309FED5E0AA06406E00006E5D5206C90
:102CF000FA309FED5B0AE06485ED130ADDE704F02E
:102D000024FA10B904F020FA08B1032008E099F879
:102D100011204846012A05D1017A032902D0082052
:102D20003071CAE7418A4B040BD58B0609D5D4F81C
:102D300054C0236C634504D903F5C873052063654B
:102D4000EEE78B050BD58B0609D5D4F850C0236C64
:102D5000634504D903F5C87302202365E0E78904BD
:102D600006D5012A04D0017A032901D00920D7E72A
:102D7000F27835493B4E8031CAB3012A9DD1B0F972
:102D80000A2091ED0D1A00EE102AF8EEC00A95ED1A
:102D90000B0A00EE810A85ED0B0AB9F90C0091EDE2
:102DA0000C1A00EE100AF8EEC00A95ED0C0A00EEBF
:102DB000810A85ED0C0A9FED2C0A92B3A76588B3B2
:102DC000C4F85C70224896ED010AD5ED0A0A2C3051
:102DD00006F02EF986ED010A1D4896ED020AD5EDA2
:102DE000090A303006F024F986ED020A65E7FFE7AC
:102DF000B9F90C0096ED020A00EE900A91ED0A1A5C
:102E00001848F8EEE00A103000EE810A86ED020A5A
:102E10009FED160A86ED000A90ED010A86ED010A83
:102E20004BE700E007E0A16D491CA1651929C6D94F
:102E300085ED0B0AC3E7E06D401CE0651928C1D998
:102E400085ED0C0ABEE70000340100205E1E002064
:102E50003402002000B05F4500B05FC500A0DF4431
:102E600000A0DFC4641800200000000000C0284556
:102E700070B51E4D1C48A5F110049FED1D1AC078B9
:102E8000DFED1C0AD5ED031A94ED020A88B1012882
:102E900029D1C4ED031A09F0D6F884ED020A0AF02C
:102EA000BBFF95ED000A84ED000ABDE870400BF011
:102EB000BFBAC4ED031A09F0C6F884ED020A0AF09D
:102EC000ABFF95ED010A9FED0C1A84ED010A94ED1C
:102ED000000ADFED0A0A09F0B6F884ED000ABDE841
:102EE00070400BF00DBB70BDB400002074180020C2
:102EF00000B8E2450030C14500D0C0450080FC4428
:102F00004B4A10B54B4B1079F3EE040A03F1300134
:102F10009FED490A494C082802D1607D012830D034
:102F2000FFF7B4FCB2EE061A10B1A07D01284BD019
:102F3000FFF7C4FC10B1607D08286FD0F2EE040AE0
:102F4000C3ED060A83ED001AF0EE040AC1ED060A8D
:102F5000DFED3B0AB1EE061AC1ED070A81ED080A62
:102F600081ED001A9FED371A81ED011A81ED020AF9
:102F7000B2EE031A83ED031AB2EE011A81ED031AC1
:102F800046E092ED0F1A83ED061AC3ED000AD2ED6A
:102F9000100AC1ED060AD2ED110AC1ED070ADFEDF4
:102FA0002A0A81ED080AC1ED000A81ED010A81EDCE
:102FB000020AD2ED0C0AC3ED030AD2ED0D0AC1EDEF
:102FC000030AD2ED0E0A23E0D2ED150AC3ED060A7C
:102FD00083ED001AD2ED120AC3ED030AD2ED160AF0
:102FE000C1ED060AD2ED170AC1ED070ADFED170A97
:102FF00081ED080AC1ED000ADFED150AC1ED010AF5
:1030000081ED020AD2ED130AC1ED030AD2ED140AD2
:10301000C1ED040A81ED050A10BDFFE79FED0D1A11
:1030200083ED031AC1ED030ADFED0B0AF0E70000A0
:10303000B400002094180020000000005C2A00204A
:103040000000484200001643CDCC0C409A99F9404C
:1030500000008C429A99994000004843074810B5F7
:103060000068FEF723F90548C8300068FEF71EF92E
:1030700003480068BDE81040FEF718B9242300207B
:10308000B42400200B48007888B101280ED10A48EA
:10309000017A0A48012905D0032905D0022905D162
:1030A000012102E0022100E0002101707047FEF7DB
:1030B0006FBB0000090000205E1E002050000020B1
:1030C0000448007818B1012803D105F07BBE06F052
:1030D0007FBB70470900002010B558B1084C491E4D
:1030E0000BD310F8013B5340DBB234F8133083EAC2
:1030F0001222F4E74FF6FF7010BD104610BD00001D
:10310000C8F3000810B5054C04E000BF10F8013BFF
:103110005340E25C491EF9D2104610BDC8F20008C7
:1031200050484FF4B4712DED048B82B0C16400217E
:103130009FED4D0A016580ED000AF1EE040AC0ED35
:10314000150A4A4E80ED090A603086ED230A80EDAB
:10315000000A9FED478AF0EE480ADFED468A464AAC
:103160006038B0EE680A05F0A9FC434A3D48F0EE2D
:10317000480AB0EE680A24320021603005F09EFC57
:103180009FED3E9ADFED3E9A3B4BF0EE491A0C3B29
:10319000B0EE691AF0EE480AB0EE680A03F11802C0
:1031A0000521304604F0F4FA334BF0EE491A183397
:1031B000B0EE691AF0EE480AB0EE680A03F11802A0
:1031C0000621304804F0E4FA2648F7EE000AB7EE8C
:1031D000000AC03003F030F92248F7EE000AB7EEDB
:1031E000000AF03003F028F9DFF89880264DDFED73
:1031F000278A9FED278ADFF89CA0274CDFF89CB038
:10320000DFF89C90012700BF0BF0A2FD0090207812
:1032100000B3287810B1607858B114E000F042F89B
:103220007068C0ED048AD8F8040080ED048A2F701D
:1032300013E09AF8000008B1032804D19BED020ABC
:1032400084ED050A677099F8000020B1012804D1C7
:1032500006F026F801E003F039FA022168460AF088
:1032600049FFD1E76414002000000000242300205F
:10327000000048430000C84374F2000800401C46A8
:103280000060EA46EC2300200000002000C0284532
:1032900000E0D34550000020B4000020741E002040
:1032A000090000202DE9F84F0BF052FD584E07465B
:1032B000DFF8608170684FF4805A4FF00009B0F970
:1032C0000C104FF4C77B00EE101AB8EEC00A80ED68
:1032D000040A70688089A0F68C2005B2D8F8040032
:1032E0008089A0F5D0507C3804B2554502DDA5F5A3
:1032F000005504E015F5805F02DA05F500552DB2A2
:10330000544502DDA4F5005404E014F5805F02DAB0
:1033100004F5005424B2C82D06DDC82C04DD0023BA
:103320003D49CDF800901CE06FF0C700854206DAF9
:10333000C82C0FDD0023384ACDF8009021E0C82DBD
:1033400007DDC82C11DA00234FF4FA62CDF80090A3
:103350000FE008DA844206DA00234FF4FA61CDF870
:1033600000900A461FE0C82D05DD00231A46CDF85F
:103370000090294917E0854206DA00231A46CDF865
:1033800000904FF4FA610EE0C82C04DD0023224ABD
:10339000CDF8009006E0844208DA00234FF4FA6288
:1033A000CDF8009000211D480AF0EEFAC7345C45C4
:1033B00002D8C7355D4506D90BF0CAFCC01B41F2E7
:1033C000883188421FD300231A4619461348CDF886
:1033D00000900AF0D9FA70689FED110A80ED040A96
:1033E000104890ED020A104880ED050AD8F8041044
:1033F0009FED0E0A81ED040A0D4991ED000A80ED62
:10340000060ABDE8F88F012009F016FD61E700000B
:1034100024230020EC23002030F8FFFF5807002071
:1034200000C02845741E0020B400002000E0D345F1
:10343000A01F002078B50024009490F83C20012AB9
:1034400019D0012280F83C200A6807230568092A60
:1034500013D9EE680A3A02EB420293409E43EE60B3
:103460000B788A680A3B03EB43039A400368DD68E4
:103470002A43DA6010E0022078BD2E6902EB420296
:1034800093409E432E610B788A6803EB43039A4076
:1034900003681D692A431A614A681F23072A13D249
:1034A00005686E6B521E02EB820293409E436E6370
:1034B0000A8893B20A79521E02EB82029340026894
:1034C000556B2B43536327E005680D2A12D22E6BF0
:1034D000D21F02EB820293409E432E630B790A882F
:1034E000DB1F92B203EB83039A4003681D6B2A43F0
:1034F0001A6311E0EE6A0D3A02EB820293409E439A
:10350000EE620B790A880D3B92B203EB83039A407B
:103510000368DD6A2A43DA621B4B0568194A9D423B
:103520000AD10D68122D07D1556825F400055560A4
:10353000556845F48005556005689D421DD1134DC1
:103540000B68AB4201D0112B17D1536823F48003D1
:103550005360536843F4000353600968A9420CD1D7
:103560000B490C4A0968B1FBF2F101EB81014900FA
:1035700000E0491E00910029FBD180F83C4000206A
:1035800078BD00000023014000200140120000101F
:103590004400002040420F000021084A084600BFB6
:1035A00032F81030401C194480B289B20A28F7D38F
:1035B0000A20B1FBF0F00249088070477406002031
:1035C000140000207047704770B504004FF00005EC
:1035D00003D0206C002610B107E0012070BD20460A
:1035E00000F01CF8666484F83C60206CC00610D4BF
:1035F000206C20F4885040F0020020642046FDF743
:103600004DFA6664206C20F0020040F00100206456
:1036100000E0012584F83C60284670BD70B586B096
:10362000064614216846FCF787FE1D49306888422B
:1036300034D11C480025016841F4807101600068A4
:1036400000F48070059017481438016841F00101BA
:1036500001600068694600F001000590402000907C
:103660000320CDE90105104800F0D8FE104C0F48AA
:10367000C4E900050015A560C4E90350400060617D
:103680008000A0614011C4E907052046656200F092
:10369000E9FD08B1FEF7B9F9B463A66306B070BDE1
:1036A0000020014044380240000002401064024003
:1036B000F8060020F8B50E4600210446009190F867
:1036C0003C00012807D0012084F83C002068836872
:1036D000DB0702D011E00220F8BD836843F001034C
:1036E00083603748374B0068B0FBF3F000EB4000D5
:1036F00000E0401E00900028FBD120688368DB07B3
:103700005CD0236C40F20165AB4343F480732364C7
:103710004068400505D5206C20F4005040F48050EE
:103720002064206CC00404D5606C20F00600606446
:1037300000E0616484F83C10A16B2448224DC8630A
:10374000A16B23480864A16B2248C86421686FF00C
:10375000220008602068416841F080614160206873
:10376000816841F4807181602168134632464C3192
:10377000A06B00F004FE68681749C006206806D0F8
:1037800088421BD1816811F0405F13D016E0884257
:10379000F8D0124A904203D1D1F80423D206F1D0D6
:1037A0000F4A90420AD1D1F8041301F01F011029E9
:1037B000E8D303E0816841F0804181600020F8BDDA
:1037C0004400002040420F00002301400D0A000881
:1037D000910A00087B0A00080020014000210140F6
:1037E0000022014090F82020012A07D0022A05D0AB
:1037F000416A41F4802141620120704700684269BA
:103800000A43426100207047F0B590F820500468E8
:10381000A468012D05D0022D03D0416A41F4802116
:1038200053E014F0406F01D1E5004BD5C4F30164BF
:10383000022C03D9416A41F4000146E00125A5406C
:103840001D608D684FF4C0739DB1CE6835434E68DE
:1038500045EAC605066803EB0417F5514FF4C27537
:10386000076805EB04150E697E51097D012905D015
:1038700009E00E88CD6845EA4655EBE701684E59E8
:1038800046F480764E511179D2F805504FF4C67641
:1038900041EA0525016806EB04168D511178D2F82E
:1038A00001204FF4C47541EA0221026805EB0415BA
:1038B0005151006803EB0411425842F0010242509A
:1038C0000020F0BD416A41F4001141620120F0BDC9
:1038D00010B590F82020012A07D0022A05D0416AAD
:1038E00041F480214162012010BD3B48D0F8002204
:1038F00042F00102C0F80022D0F8002222F47C52EB
:10390000C0F80022D0F800224B6A42EA0322C0F835
:1039100000220A7D02F01F0301229A40D0F81C32D7
:103920009343C0F81C32CB69B3B9D0F80C3293433F
:10393000C0F80C328C894B6864F31F434C6900EB70
:10394000C404C4F840320C890B6864F31F434C690B
:1039500000EBC404C4F84432CB69012B16D1D0F873
:103960000C321343C0F80C320C884B6864F31F43CD
:103970004C6900EBC404C4F840320C89CB6864F392
:103980001F434C6900EBC404C4F844328B69002B1C
:10399000D0F804320ED01343C0F804320B69002B68
:1039A000D0F8143208D01343C0F81432096A012940
:1039B00004D008E09343EFE79343F5E7D0F81C12F7
:1039C0001143C0F81C12D0F8001221F00101C0F818
:1039D0000012002010BD000000640040704730B5A8
:1039E00090F82040012C05D0022C03D0416A41F40C
:1039F00080215DE00468002955D02469A40754D0D3
:103A00004FF4D874056804EB01142D5915F0040522
:103A1000956005682D594ED0ED08556005682C5904
:103A2000C4F34004D4604FF4DA74056804EB011465
:103A30002D5905F00F05156105682D59C5F30725AA
:103A4000956105682C59240C54614FF4DC720468AC
:103A500002EB0112A4581C700468A458240A5C707C
:103A60000468A458240C9C700468A258120EDA70E2
:103A70004FF4DE72046802EB0112A4581C71046852
:103A8000A458240A5C710468A458240C9C7104682E
:103A9000A258120EDA71006881B1016941F020016B
:103AA0000161002030BDE468A8E7416A41F40011DB
:103AB0004162012030BD6D0D1560AFE7C16841F076
:103AC0002001C160EDE70246002092F82010012994
:103AD00001D002290CD111688A68520100D5012059
:103AE0008A68120100D5401C8968C90000D5401CB5
:103AF00070472DE9F05F0546006800244669D0F85C
:103B000004908768D0F80CB0D0F810A0D0F81880D6
:103B1000F10748D0F90714D001218160B80703D517
:103B2000284600F070FA0CE0780702D54FF40064E4
:103B300007E0380702D54FF4805402E0284600F031
:103B400061FAF80516D529684FF480708860B805C9
:103B500003D5284600F059FA0CE0780502D544F464
:103B6000005407E0380502D544F4804402E02846BA
:103B700000F04AFAF80316D529684FF480308860BF
:103B8000B80303D5284600F042FA0CE0780302D5CA
:103B900044F4004407E0380302D544F4803402E0E2
:103BA000284600F033FA300707D55FEACB6004D52A
:103BB0002968102044F40074C86070074FF00807AB
:103BC00007D55FEA0B7004D52868C760284600F067
:103BD000A9F9B00706D52868C068800702D0284632
:103BE00000F0A2F9700607D55FEACA6004D529681B
:103BF000102044F480640861B00607D55FEA0A70BB
:103C000004D528680761284600F0CCF9F00606D5EF
:103C100028680069800702D0284600F0C4F9B00384
:103C200008D55FEAC96005D5296810204860284694
:103C300000F0BAF9F00307D55FEA097004D52868E7
:103C40004760284600F0E4F9300446D55FEA497041
:103C500040D5F00504D55FEAC87001D044F00104F6
:103C6000B00504D55FEA887001D544F00204700500
:103C700004D55FEA487001D544F00404300529D525
:103C800018F0700F26D008F07000402815D006DC20
:103C9000102809D020280AD0302816D10AE0502850
:103CA0000ED0602811D10EE044F008040DE044F07D
:103CB00010040AE044F0200407E044F0400404E06B
:103CC00044F0800401E044F480742868816921F0A4
:103CD00070018161296804204860002C05D0686A61
:103CE000204368622846FFF779FEBDE8F09F70B573
:103CF000040003D094F8200010B104E0012070BD4E
:103D0000204600F081F82068016821F0020101607E
:103D100000F07CFC0546052604E000F077FC401B23
:103D20000A2811D8206840688007F6D42068016806
:103D300041F00101016000F069FC05460BE000F074
:103D400065FC401B0A2806D9606A40F400306062B6
:103D500084F82060D2E720684068C007EFD0207E5A
:103D60000128206801683DD021F080010160607E5B
:103D700001282068016838D021F040010160A07E50
:103D800001282068016833D021F020010160E07E25
:103D90000128206801682ED041F010010160207FC9
:103DA00001282068016829D021F008010160607FA6
:103DB00001282068016824D021F004010160D4E9C1
:103DC00002010843D4E90412114308436168491E03
:103DD00008432168C86100206062012084F8200047
:103DE000002070BD41F08001C0E741F04001C5E70F
:103DF00041F02001CAE721F01001CFE741F00801AE
:103E0000D4E741F00401D9E7F0B587B004461421A6
:103E10006846FCF791FA3E4B3E48DFF8F0E019683F
:103E2000D4F800C03B4A032502260927103000249D
:103E3000491CF4452AD11960012907D1016841F0D4
:103E400000710160006800F000700590106840F09B
:103E5000080010601068CDE9005600F00800CDE9B8
:103E6000047069462C48CDE9024500F0D7FA0022DB
:103E70000521132000F056FC132000F045FC002221
:103E80000521142000F04EFC14203BE0DFF88CE00C
:103E9000F44539D1D0F800C04CF0806CC0F800C0B7
:103EA000D0F800C001290CF0806CCDF814C0196066
:103EB00007D1016841F000710160006800F00070F6
:103EC0000590106840F002001060106802AB00F02E
:103ED000020005904FF44050CDE9000683E8B000A1
:103EE00069460F4800F09AFA002205213F2000F0B1
:103EF00019FC3F2000F008FC00220521402000F0C2
:103F000011FC402000F000FC07B0F0BD0064004050
:103F10001800002030380240000C024000680040C9
:103F2000000402407047000010B58AB004466B469A
:103F300002AA0021FFF753FD0298A0F201201128E8
:103F400020D2DFE800F0090909090909090909096E
:103F5000091F1F1F1F1F1A000E49C0B208700E490B
:103F6000C0EB00108C4201D10C4900E00C4901EB80
:103F70008000694608F0FAF804E006486946401CEB
:103F800008F0BEF82068416941F0020141610AB0C1
:103F900010BD0000E0040020580700202419002074
:103FA000B81B0020704770477047000070B504468A
:103FB00090F82000012804D0606A40F4002060627C
:103FC00018E0022084F820002068016821F0010137
:103FD000016000F01BFB05460EE000BF00F016FB81
:103FE000401B0A2808D9606A40F40030606205204E
:103FF00084F82000012070BD20684068C007EDD122
:10400000606270BD70477047704770477047704777
:1040100070472DE9F0410446876D00F0F7FA064637
:1040200094F835000025022806D08020606584F8C9
:1040300034500120BDE8F0812068016821F01601AC
:1040400001602068416921F080014161206C08B95C
:10405000A06C20B12068016821F00801016020688F
:10406000016821F0010101600BE000F0CFFA801B34
:10407000052806D92020606504F8345F03206070AD
:10408000D8E720680068C007EFD194F85C103F20A3
:104090008840B86004F8345F012060700020C9E7F0
:1040A00090F83510022903D0802141650120704726
:1040B000052180F835100068016821F001010160D8
:1040C000002070472DE9F84304464FF00009CDF871
:1040D000009063484FF41651A56D0068B0FBF1F7EE
:1040E0002E6894F85C10082000FA01F131420FD0DC
:1040F00021680A6852070BD50A6822F004020A6098
:1041000094F85C108840A860606D40F00100606524
:1041100094F85C104FF0010808FA01F0304208D022
:1041200021684969090604D5A860606D40F0020065
:10413000606594F85C1004208840304208D0216803
:104140000968890704D5A860606D40F004006065C7
:1041500094F85C1010208840304218D0216809681B
:10416000090714D5A86020680168490304D50068D0
:10417000000308D5A16C07E00168C90503D40168F4
:1041800021F008010160216C09B12046884794F8AC
:104190005C1020208840304231D021680968C9066F
:1041A0002DD5A86094F8350005282068016806D050
:1041B000490347D5006800031DD4616C1CE021F061
:1041C000160101602068416921F080014161206C85
:1041D00008B9A06C20B12068016821F008010160D5
:1041E00094F85C103F208840A86084F8349084F8EC
:1041F0003580216D1FE0E16B09B120468847606D75
:1042000000282BD0606DC00714D0052084F835003D
:104210002068016821F0010101600098401C0090B5
:10422000B84203D820680068C007F6D184F83490FB
:1042300084F83580E16C002910D001B02046BDE83B
:10424000F04308470168C905D5D4016821F0100181
:10425000016084F8349084F83580CCE7BDE8F883B9
:10426000440000202DE9F041044600F0CFF9064655
:104270005CB1002584F83450022084F835002068B1
:10428000016821F0010101600DE00120BDE8F0812D
:1042900000F0BCF9801B052805D9202060650320AB
:1042A00084F83500F2E720680068C007F0D1226882
:1042B000116820480140D4E901031843D4E90336CA
:1042C0003343184363691843A3691843E3691843E8
:1042D000236A18430843616A042903D1D4E90B1304
:1042E00019430843106020684069666A20F007019E
:1042F00030460E43012704280CD1A06A0643E06A29
:1043000040B12046FDF742FB20B14020606584F8B3
:104310003570BAE7206846612046FDF723FB94F824
:104320005C203F2191408160656584F835700020F4
:10433000ACE700003F8010F070B5044690F8340000
:10434000002501280CD0012084F8340094F8356051
:104350000020012E06D084F834000225284670BDC6
:10436000022070BD022684F8356060652046FDF7A6
:1043700037FB2068016841F001010160EEE72DE99B
:10438000F0410446866D90F83400002501280DD0D8
:10439000012084F8340094F835700020012F07D0F4
:1043A00084F8340002252846BDE8F0810220FBE7AE
:1043B000022784F8357060652046FDF711FB94F8FC
:1043C0005C103F208840B0602068016841F0160111
:1043D00001602068416941F080014161206C20B199
:1043E0002068016841F0080101602068016841F01F
:1043F00001010160D7E7000070B5044600F006F93E
:104400000546601C02D004480078044400F0FEF821
:10441000401BA042FAD370BDF00500202DE9F84FF3
:10442000DFF890B100224FF001084FF0030A4FF07F
:104430000F090BF1040E00BF0B6808FA02F42340C9
:10444000A3426ED14D68022D01D0122D0ED1D50898
:1044500000EB850CDCF820505607F70E09FA07F63A
:10446000B5430E69BE402E43CCF820600668550067
:104470000F790AFA05FC07F0030726EA0C06AF409D
:10448000374307604E68012E05D0022E03D0112E4F
:1044900001D0122E0ED18768CE6827EA0C07AE40F5
:1044A0003E4386604668A6430C79C4F300149440EA
:1044B00034434460C4688E6824EA0C04AE4026434A
:1044C000C6604C68E4006FD53B4C256845F48045D8
:1044D0002560246822F0030504F480440094374CDE
:1044E0002E19D6F8084895072F0F09FA07F5AC439F
:1044F000334DA84201D100252EE0324DA84201D112
:10450000012529E0304DA84201D1022524E02F4D9C
:10451000A84201D103251FE02D4DA84202D1042558
:104520001AE041E02B4DA84201D1052514E02A4DA7
:10453000A84201D106250FE0284DA84201D1072548
:104540000AE0274DA84201D1082505E0254DA842E3
:1045500001D1092500E00A25BD402543C6F80858C9
:10456000DBF800405D464E689C43F60300D51C43D3
:104570002C60DEF8004075464E689C43B60300D5BB
:104580001C432C600B4D08352C684E689C43F6028A
:1045900000D51C432C60074D0C352C684E689C439D
:1045A000B60200D51C432C60521C102AFFF444AF05
:1045B000BDE8F88F003C0140443802400030014023
:1045C000000002400004024000080240000C0240CB
:1045D000001002400014024000180240001C02407B
:1045E00000200240002402400069084000D0012061
:1045F0007047426931EA020200D1090481617047C3
:104600000AB1816170470904FBE700000148806836
:1046100070470000F00500200248816802781144CC
:1046200081607047F00500200B4810B5016841F427
:1046300000710160016841F480610160016841F42A
:1046400080710160032000F08DF8002000F006F872
:1046500000F03EF8002010BD003C024010B50146BD
:1046600088B00022192000F05DF8192000F04CF805
:1046700013480024016841F001010160006805A9A8
:1046800000F001000690684600F04EF900F07CF959
:104690000C494000B0FBF1F10C480B4A491E026086
:1046A00040F2E732C0E90324C0E9011400F0A4FDA0
:1046B00010B1012008B010BD044800F0FDFDF9E77D
:1046C0004438024040420F0000000140000F00202B
:1046D0000C4882B0016841F480410160006800F438
:1046E000804000900748001F016841F08051016040
:1046F0000068002200F0805000900F21901E02B050
:1047000000F010B844380240002809DB00F01F0216
:10471000012191404009800000F1E020C0F8001123
:1047200070470000F0B40E4B1B680C46C3F3022325
:10473000C3F10705042D00D90425191D072901D24D
:10474000002300E0DB1E012606FA05F1491E214088
:1047500099409E40761E16403143F0BC06F09CB84E
:104760000CED00E0064900F0070208684FF6FF0371
:10477000184040EA0220034A1043086070470000D6
:104780000CED00E00000FA052DE9F8431748016838
:1047900041F0805101600068154F00F08050012603
:1047A00000903E64FFF732FF05464FF47A78114CD3
:1047B00005E000BFFFF72AFF401B40450DD86068A9
:1047C000C003F7D57E64FFF721FF0546464607E0A4
:1047D000FFF71CFF401BB04202D90320BDE8F8835D
:1047E00060688003F4D50020F8E7000040380240FC
:1047F00000000E42007000402DE9F0470E46050013
:1048000065D0DFF81481D8F80000F7B200F00F008F
:10481000B04207D288F80070D8F8000000F00F000E
:10482000B04254D128683D4C810712D5400703D5CA
:10483000206840F4E05020602878000703D5206805
:1048400040F4604020602068A96820F0F000084330
:1048500020602878C0072DD03049686808390128C1
:1048600012D0022813D0032811D009688907002923
:104870002DDA216821F0030101432160FFF7C6FE14
:10488000814641F2883A0EE009688903EFE709683A
:104890008901ECE7FFF7BAFEA0EB0901514502D907
:1048A0000320BDE8F0872068696800F00C00B0EBD9
:1048B000810FEFD1D8F80010404601F00F01B1424E
:1048C00007D90770006800F00F00B04201D0012046
:1048D000E7E72878400705D52068E96820F4E0502C
:1048E000084320602878000706D52068296920F44D
:1048F000604040EAC100206000F056F82168084A94
:10490000C1F30311515CC840064908600020FFF75D
:10491000A5FE0020C5E70000003C02400838024028
:1049200008F20008440000200F2202600C4A1368BD
:1049300003F003034360136803F0F003836013681C
:1049400003F4E053C36012684FF4E05303EAD20269
:1049500002610448006800F00F0008607047000022
:1049600008380240003C02400448054900680968D4
:10497000044AC1F38221515CC840704744000020C2
:104980000838024018F20008044805490068096820
:10499000044AC1F34231515CC840704744000020D2
:1049A0000838024018F20008154810B5006810F0E9
:1049B0000C02144813D01449042A0FD0082A0ED12F
:1049C0000F4C241F2268236802F03F025B0207D5C8
:1049D0002068C0F38810A0FB010106E0084610BD66
:1049E0002168C1F38811A1FB00010023FBF75AFCE9
:1049F0002168C1F30141491C4900B0FBF1F010BD31
:104A0000083802400024F400001BB7002DE9F84FDD
:104A1000050076D02878DFF8F8B2BE4CC00749D040
:104A2000DBF800105846C1F38101012908D0006865
:104A3000C0F3810002280AD1201D0068400206D57B
:104A40002068800336D568680028E2D032E06868C4
:104A5000B0F5803F10D0B0F5A02F206810D020F422
:104A600080302060206820F4802020606868A0B139
:104A7000FFF7CCFD06460CE0206840F48030F4E7F8
:104A800040F480202060F7E7FFF7C0FD801B64281A
:104A900073D820688003F7D50CE0FFF7B7FD064612
:104AA00005E000BFFFF7B2FD801B6428F0D8206846
:104AB0008003F7D42878DFF8608280074FF0000980
:104AC0003ED5DBF80010584611F00C0F09D00068F5
:104AD000C0F3810002280BD18D48001F00684002FE
:104AE00006D42068800715D5E868012809D111E0AF
:104AF000E868B8B10120C8F80000FFF787FD064656
:104B000005E002E1FFF782FD801B0228C0D8206883
:104B10008007F7D52068296920F0F80040EAC10035
:104B200020600DE0C8F80090FFF770FD064604E035
:104B3000FFF76CFD801B02281FD820688007F7D480
:104B40002878000722D5724E744869696C3671B1B5
:104B500001210160FFF75AFD074604E0FFF756FD0B
:104B6000C01B022809D830688007F7D50EE0C0F8CE
:104B70000090FFF74BFD074605E083E0FFF746FD99
:104B8000C01B02287ED830688007F7D428784007F9
:104B900068D5DFF87CA100270AF1380ADAF80000AE
:104BA000C0000BD4DAF8001041F08051CAF80010B0
:104BB000DAF80000012700F080500090584E30686D
:104BC000C00510D4306840F480703060FFF71EFDDF
:104BD000009005E0FFF71AFD0099401A022851D80D
:104BE0003068C005F6D54A4EA868683601280FD04F
:104BF0000528306810D020F001003060306820F0C7
:104C000004003060A868B8B1FFF700FD00900FE025
:104C1000306840F00100F4E740F004003060F7E74E
:104C2000FFF7F4FC0099411A41F28830814264D8C0
:104C300030688007F4D50EE0FFF7E8FC009007E04D
:104C4000FFF7E4FC0099411A41F28830814254D8C0
:104C500030688007F4D42FB1DAF8001021F08051C9
:104C6000CAF80010A869C0B3DBF80010C1F38101D5
:104C700002294AD00228484607D0C8F86000FFF74A
:104C8000C5FC00E039E005463AE04746C8F8600058
:104C9000FFF7BCFC064604E0FFF7B8FC801B0228C7
:104CA0002BD820688001F7D4D5E907010843A96A09
:104CB0001C4A490802EB01416A6A41EA8211084331
:104CC00095F82C1040EA01611148001F0160012095
:104CD0003866FFF79BFC054605E014E0FFF796FCFD
:104CE000401B022809D820688001F7D50BE000BFDF
:104CF000FFF78CFC401B022802D90320BDE8F88F87
:104D000020688001F4D40020F8E70120F6E70000D5
:104D1000083802400038024000004742800E4742F7
:104D2000007000400000FFFF70B5040005D00025B2
:104D3000A56294F8510010B106E0012070BD84F81E
:104D40005050204600F030F8022084F851002068CE
:104D5000016821F040010160D4E901010843D4E970
:104D600003121143084361690843218B01F4007168
:104D70000843E1690843216A0843A16A084321689E
:104D80000860A069042101EA1040616A08432168B3
:104D900048602068C16921F40061C1616565012036
:104DA00084F85100002070BDF0B587B0044614218E
:104DB0006846FBF7C1FA2A48284B22680024284994
:104DC00014380225032605279A4227D10A6842F49F
:104DD00080520A60096801F480510591016841F030
:104DE00001010160016801F001010591016841F0D4
:104DF00002010160006802AA00F002000590802014
:104E0000CDE9000582E8D00069461648FFF706FBA9
:104E10001820CDE900056946134818E0134B9A4263
:104E20001AD10A6842F480120A60096801F48011FC
:104E30000591016841F0200101600068694600F0B9
:104E4000200005904FF46070CDE90005084802AAE3
:104E500082E8D000FFF7E2FA07B0F0BD0030014071
:104E6000443802400000024000040240005001406B
:104E7000001402402DE9F84F044690F85000002736
:104E80001D461646894601280DD04FF0010B84F8C7
:104E900050B0FFF7BBFB804694F85100BA4601289A
:104EA00004D002278EE00220BDE8F88FB9F1000F90
:104EB0007DD0002E7BD0032084F85100C4F854A08C
:104EC000C4F83090A686E686C4F838A0A4F83CA0C2
:104ED000A4F83EA0C4F844A0C4F840A0A068B0F56F
:104EE000004F04D12068016841F4804101602068CE
:104EF0000168490603D4016841F040010160E0689F
:104F0000B0F5006F606803D030B3012E24D040E0CC
:104F100008B1012E1CD1206B21680088C86006E012
:104F200020688168890709D5216B0988C160206BD9
:104F3000801C2063E08E401EE08609E0FFF766FBE0
:104F4000A0EB0800A84202D3681C01D031E07DB379
:104F5000E08E0028E4D11FE0206B21680078087300
:104F600006E020688168890709D5216B09780173FB
:104F7000206B401C2063E08E401EE08609E0FFF7B6
:104F800045FBA0EB0800A84202D3681C01D010E04A
:104F900075B1E08E0028E4D142462946204604F04F
:104FA000B3FC08B120206065A06820B107E008E0EC
:104FB000FFE7032706E02068C16880680090606D05
:104FC00000B1012784F851B084F850A038466BE74F
:104FD0002DE9F84F044690F8500000270A9E1D4620
:104FE00092468B464FF0010901280ED0012084F82B
:104FF0005000FFF70BFB804694F8510061680128D0
:105000000CD0B1F5827F07D102E00220BDE8F88F15
:10501000A16809B9042801D00227C2E0BBF1000F42
:1050200027D0BAF1000F24D01DB394F85100042802
:1050300002D0052084F8510000206065C4F838A033
:10504000E587A587C4F830B0E586A586206460644E
:1050500020680168490603D4016841F040010160FD
:10506000E068B0F5006F606805D0E8B3012D46D068
:105070007FE0012795E008B1012D39D1206B21682F
:105080000088C860206B801C2063E08E401EE08694
:105090002EE02068816889070FD5E18E69B1B9F1EA
:1050A000010F0AD1216B0988C160206B801C20632D
:1050B000E08E401EE0864FF0000920688168C90735
:1050C0000CD0E18F51B1C068A16B0880A06B801C2F
:1050D000A063E08F401EE0874FF00109FFF796FACA
:1050E000A0EB0800B04200E009E001D3701C50D1F1
:1050F000E08E0028CDD1E08F0028CAD13FE0206BA0
:10510000216800780873206B401C2063E08E401EED
:10511000E0862EE02068816889070FD5E18E69B1AD
:10512000B9F1010F0AD1216B09780173206B401C82
:105130002063E08E401EE0864FF000092068816801
:10514000C9070CD0E18F51B1C068A16B0870A06B8A
:10515000401CA063E08F401EE0874FF00109FFF77D
:1051600055FAA0EB0800B04202D3701C01D010E049
:105170007EB1E08E0028CDD1E08F0028CAD1424612
:105180003146204604F0C0FB28B10127202060658D
:1051900007E0032705E0A06818B92068C1688068A7
:1051A0000090012084F85100002084F85000384617
:1051B0002CE77047704770B590F83C20012A19D051
:1051C000012400F83C4F0222427050F83C3C5A68DF
:1051D0009D6822F070060A684968324325F0800510
:1051E00029435A6050F83C2C9160447000210170B2
:1051F000084670BD022070BD10B5040003D094F8BD
:105200003D0010B107E0012010BD002084F83C00F3
:10521000204600F00DF8022084F83D00211D206892
:1052200004F056FE012084F83D00002010BD00006F
:1052300008B5154A0168154891420ED1016841F040
:10524000100101600068002200F0100000900521AC
:105250003620FFF767FA362010E00D4A914211D14F
:10526000016841F0800101600068002200F08000C8
:10527000009005212C20FFF755FA2C20BDE80840AE
:10528000FFF742BA08BD000000100040403802405D
:10529000001C0040022180F83D1001688A6802F07D
:1052A0000702062A03D00A6842F001020A600121BF
:1052B00080F83D10002070470168CA6842F0010282
:1052C000CA600068816801F00701062903D00168FF
:1052D00041F00101016000207047704770B504463D
:1052E000006801694FF00005C943890715D4C168FA
:1052F000C943890711D4E91E016101202077206884
:1053000080698007204602D0FFF7E7FF04E000F045
:10531000F3F8204600F0A0F9257720680169C94319
:10532000490717D4C168C943490713D46FF0040172
:105330000161022020772068806910F4407F2046B8
:1053400002D0FFF7CAFF04E000F0D6F8204600F0D4
:1053500083F9257720680169C943090716D4C16814
:10536000C943090712D46FF00801016104202077B6
:105370002068C0698007204602D0FFF7AEFF04E036
:1053800000F0BAF8204600F067F925772068016937
:10539000C943C90617D4C168C943C90613D46FF0FD
:1053A00010010161082020772068C06910F4407F57
:1053B000204602D0FFF791FF04E000F09DF8204660
:1053C00000F04AF9257720680169C943C90708D167
:1053D000C168C943C90704D1891E0161204600F094
:1053E0005FF920680169C943090609D4C168C94346
:1053F000090605D46FF0800101612046FFF7D9FE50
:1054000020680169C943490609D4C168C9434906EE
:1054100005D46FF040010161204600F067F9206873
:105420000169C94389060BD4C168C943890607D4F9
:105430006FF0200101612046BDE87040FFF7BABE61
:1054400070BD000010B586B0044614216846FAF716
:1054500073FF2368002122480222B3F1804F17D046
:10546000204CA34226D1036843F002030360006886
:1054700000F00200059020200090CDE90121CDE947
:1054800003121948694600BFFEF7C8FF06B010BDF9
:10549000036843F001030360006800F00100059019
:1054A00003200090CDE901210120CDE903106946D8
:1054B0000E48E9E70E4CA342E8D1036843F08003AD
:1054C0000360006800F08000059040200090CDE966
:1054D00001210920CDE9031069460648D4E7000000
:1054E0003038024000040040000402400000024046
:1054F00000180040001C0240704770B5044690F848
:105500003C000D4601280DD0012684F83C600220A5
:1055100084F83D0042B1042A18D0082A2AD00C2A67
:105520004DD139E0022070BD206804F04FFD2068A5
:10553000816941F0080181612068816921F00401DD
:105540008161206881692A69114311E0206804F0B3
:105550006DFD2068816941F4006181612068816985
:1055600021F480618161206881692A6941EA022110
:10557000816124E0206804F08FFD2068C16941F05A
:105580000801C1612068C16921F00401C16120687E
:10559000C1692A69114311E0206804F0B1FD206857
:1055A000C16941F40061C1612068C16921F4806171
:1055B000C1612068C1692A6941EA0221C16184F898
:1055C0003D60002084F83C0070BD10B5040003D09D
:1055D00094F83D0010B107E0012010BD002084F8D0
:1055E0003C00204600F00CF8022084F83D00211D0C
:1055F000206804F06DFC012084F83D00002010BDFF
:1056000008B501681148B1F1804F0BD0104A9142A2
:1056100010D1016841F002010160006800F0020051
:10562000009008BD016841F001010160006800F0D0
:105630000100F5E7074A9142F3D1016841F04001CA
:105640000160006800F04000EAE7000040380240D6
:1056500000040040001800407047000010B50446E8
:105660000068012204F098FC0B492068884202D0AF
:105670000A49884203D1416C41F4004141642068E9
:10568000816801F00701062903D0016841F001019A
:105690000160002010BD0000000001400004014036
:1056A00010B5044600680D49884204D14FF4FA5100
:1056B0000B4808F099F90B492068884205D1FCF79E
:1056C000A5F904F06EFB04F06BFB074920688842E3
:1056D00003D1BDE81040FEF79FBF10BD0010004091
:1056E00058070020001C004000000140704710B522
:1056F00004460068416994F83920C1F3C011212A99
:105700000BD151B1416921F080014161206B08B199
:10571000FEF77FFC204604F0E5FD2068416994F81F
:105720003A20C1F38011222A0BD151B1416921F0F5
:1057300040014161606B08B1FEF76BFC204604F04C
:10574000C3FD002010BD704770B5026804461068A4
:10575000D168536910F00F0F51D003F0010501F427
:10576000907635435DD0C20705D0CA0503D5E26BFC
:1057700042F00102E263420705D5DA0703D0E26B8B
:1057800042F00202E263820705D5DA0703D0E26B3A
:1057900042F00402E263020705D5DA0703D0E26BA8
:1057A00042F00802E263E26B002A34D0800604D59E
:1057B000880602D5204604F09EFD20684069E16B12
:1057C000C0F3801001F008010143204624D004F00A
:1057D0007BFD2068416949061AD5416921F04001E5
:1057E0004161606BA0B11B490165606BFEF758FC1D
:1057F000002810D0606B016DBDE87040084783063B
:105800000FD58B060DD52046BDE8704004F073BD62
:105810002046FFF798FF70BDFFF795FF0020E0637B
:1058200070BD030606D50B0604D52046BDE87040C2
:1058300004F002BF4006F3D54806F1D5D1682046F2
:1058400021F04001D160202184F8391000F00BFADA
:1058500070BD000029A2000870B5040004D094F8BF
:105860003900002510B106E0012070BD84F83850E1
:10587000204600F023F8242084F839002068C1680D
:1058800021F40051C160204604F080FD20680169C8
:1058900021F4904101612068416921F02A014161B0
:1058A0002068C16841F40051C160E563202084F89C
:1058B000390084F83A00002070BD00002DE9F04F57
:1058C00087B0054614216846FAF736FD9E48DFF892
:1058D00074821038D5F800C000249B4B02210122AD
:1058E0000326DFF868E207154FF0080A4FF0206B37
:1058F0004FF48079C44533D1D3F800C04CF0804CCC
:10590000C3F800C01B6803F080430593036843F0AD
:1059100010030360006800F010000590F0018DE8AE
:10592000470469467046FEF779FD8A4E8848306024
:10593000C6E901B4C6E903477461C6E906493462A1
:1059400030467462FEF78EFC08B1FCF75EF86E63B9
:10595000002205215220B563FEF7E4FE52203CE010
:10596000DFF8F481C4453DD1D3F800C04CF0004CC1
:10597000C3F800C01B6803F000430593036843F0BD
:10598000100303600068CDE9006100F01000CDE96C
:1059900004A0CDE9022669467046FEF73FFD6D4E34
:1059A0006B48603648303060C6E901B4C6E9034749
:1059B0007461C6E906494FF40030C6E90804304670
:1059C000FEF750FC08B1FCF720F86E6300220521B9
:1059D0005320B563FEF7A6FE5320FEF795FE07B0F1
:1059E000BDE8F08FDFF874814FF0070EC44555D144
:1059F000554B1B1DD3F800C04CF0100CC3F800C071
:105A00001B6803F010030593036843F00103036070
:105A1000036803F001030593036843F00203036086
:105A200000688B4600F0020005904FF40070CDE94D
:105A3000000BB0460292CDE9038E92467646694647
:105A40004748FEF7EBFC8020CDE9000BCDF808A01D
:105A5000CDE9038669464348FEF7E0FC3D4E4248E7
:105A6000C03630604FF00060C6E90104C6E9034764
:105A70007461C6E906494FF44030C6E9080430466F
:105A8000FEF7F0FB08B1FBF7C0FF6E6300220521B3
:105A90002520B563FEF746FE25209EE7DFF8CC8083
:105AA000C4459CD1D3F800C04CF4802CC3F800C08E
:105AB0001B6803F480230593036843F0020303602B
:105AC000036803F002030593036843F008030360CF
:105AD00000688B4600F0080005904FF40060CDE9A7
